{
  "contractName": "MetaPassport",
  "abi": [
    {
      "inputs": [],
      "stateMutability": "nonpayable",
      "type": "constructor"
    },
    {
      "anonymous": false,
      "inputs": [
        {
          "indexed": true,
          "internalType": "address",
          "name": "owner",
          "type": "address"
        },
        {
          "indexed": true,
          "internalType": "address",
          "name": "approved",
          "type": "address"
        },
        {
          "indexed": true,
          "internalType": "uint256",
          "name": "tokenId",
          "type": "uint256"
        }
      ],
      "name": "Approval",
      "type": "event"
    },
    {
      "anonymous": false,
      "inputs": [
        {
          "indexed": true,
          "internalType": "address",
          "name": "owner",
          "type": "address"
        },
        {
          "indexed": true,
          "internalType": "address",
          "name": "operator",
          "type": "address"
        },
        {
          "indexed": false,
          "internalType": "bool",
          "name": "approved",
          "type": "bool"
        }
      ],
      "name": "ApprovalForAll",
      "type": "event"
    },
    {
      "anonymous": false,
      "inputs": [
        {
          "indexed": false,
          "internalType": "uint256",
          "name": "mpTokenId",
          "type": "uint256"
        },
        {
          "indexed": false,
          "internalType": "uint256",
          "name": "avatarPartId",
          "type": "uint256"
        }
      ],
      "name": "BindAvatarPart",
      "type": "event"
    },
    {
      "anonymous": false,
      "inputs": [
        {
          "indexed": false,
          "internalType": "address",
          "name": "to",
          "type": "address"
        },
        {
          "indexed": false,
          "internalType": "uint256",
          "name": "tokenId",
          "type": "uint256"
        }
      ],
      "name": "MetaPassportMint",
      "type": "event"
    },
    {
      "anonymous": false,
      "inputs": [
        {
          "indexed": false,
          "internalType": "address",
          "name": "account",
          "type": "address"
        }
      ],
      "name": "Paused",
      "type": "event"
    },
    {
      "anonymous": false,
      "inputs": [
        {
          "indexed": true,
          "internalType": "bytes32",
          "name": "role",
          "type": "bytes32"
        },
        {
          "indexed": true,
          "internalType": "bytes32",
          "name": "previousAdminRole",
          "type": "bytes32"
        },
        {
          "indexed": true,
          "internalType": "bytes32",
          "name": "newAdminRole",
          "type": "bytes32"
        }
      ],
      "name": "RoleAdminChanged",
      "type": "event"
    },
    {
      "anonymous": false,
      "inputs": [
        {
          "indexed": true,
          "internalType": "bytes32",
          "name": "role",
          "type": "bytes32"
        },
        {
          "indexed": true,
          "internalType": "address",
          "name": "account",
          "type": "address"
        },
        {
          "indexed": true,
          "internalType": "address",
          "name": "sender",
          "type": "address"
        }
      ],
      "name": "RoleGranted",
      "type": "event"
    },
    {
      "anonymous": false,
      "inputs": [
        {
          "indexed": true,
          "internalType": "bytes32",
          "name": "role",
          "type": "bytes32"
        },
        {
          "indexed": true,
          "internalType": "address",
          "name": "account",
          "type": "address"
        },
        {
          "indexed": true,
          "internalType": "address",
          "name": "sender",
          "type": "address"
        }
      ],
      "name": "RoleRevoked",
      "type": "event"
    },
    {
      "anonymous": false,
      "inputs": [
        {
          "indexed": false,
          "internalType": "uint256",
          "name": "mpTokenId",
          "type": "uint256"
        },
        {
          "indexed": false,
          "internalType": "uint256[]",
          "name": "avatarPartIds",
          "type": "uint256[]"
        }
      ],
      "name": "SetCurrentAvatarPart",
      "type": "event"
    },
    {
      "anonymous": false,
      "inputs": [
        {
          "indexed": true,
          "internalType": "address",
          "name": "from",
          "type": "address"
        },
        {
          "indexed": true,
          "internalType": "address",
          "name": "to",
          "type": "address"
        },
        {
          "indexed": true,
          "internalType": "uint256",
          "name": "tokenId",
          "type": "uint256"
        }
      ],
      "name": "Transfer",
      "type": "event"
    },
    {
      "anonymous": false,
      "inputs": [
        {
          "indexed": false,
          "internalType": "address",
          "name": "account",
          "type": "address"
        }
      ],
      "name": "Unpaused",
      "type": "event"
    },
    {
      "inputs": [],
      "name": "DEFAULT_ADMIN_ROLE",
      "outputs": [
        {
          "internalType": "bytes32",
          "name": "",
          "type": "bytes32"
        }
      ],
      "stateMutability": "view",
      "type": "function"
    },
    {
      "inputs": [],
      "name": "MINTER_ROLE",
      "outputs": [
        {
          "internalType": "bytes32",
          "name": "",
          "type": "bytes32"
        }
      ],
      "stateMutability": "view",
      "type": "function"
    },
    {
      "inputs": [],
      "name": "PAUSER_ROLE",
      "outputs": [
        {
          "internalType": "bytes32",
          "name": "",
          "type": "bytes32"
        }
      ],
      "stateMutability": "view",
      "type": "function"
    },
    {
      "inputs": [
        {
          "internalType": "address",
          "name": "to",
          "type": "address"
        },
        {
          "internalType": "uint256",
          "name": "tokenId",
          "type": "uint256"
        }
      ],
      "name": "approve",
      "outputs": [],
      "stateMutability": "nonpayable",
      "type": "function"
    },
    {
      "inputs": [],
      "name": "avatarPartAddress",
      "outputs": [
        {
          "internalType": "address",
          "name": "",
          "type": "address"
        }
      ],
      "stateMutability": "view",
      "type": "function"
    },
    {
      "inputs": [],
      "name": "avatarSetAddress",
      "outputs": [
        {
          "internalType": "address",
          "name": "",
          "type": "address"
        }
      ],
      "stateMutability": "view",
      "type": "function"
    },
    {
      "inputs": [
        {
          "internalType": "address",
          "name": "owner",
          "type": "address"
        }
      ],
      "name": "balanceOf",
      "outputs": [
        {
          "internalType": "uint256",
          "name": "",
          "type": "uint256"
        }
      ],
      "stateMutability": "view",
      "type": "function"
    },
    {
      "inputs": [
        {
          "internalType": "uint256",
          "name": "tokenId",
          "type": "uint256"
        }
      ],
      "name": "burn",
      "outputs": [],
      "stateMutability": "nonpayable",
      "type": "function"
    },
    {
      "inputs": [
        {
          "internalType": "uint256",
          "name": "tokenId",
          "type": "uint256"
        }
      ],
      "name": "getApproved",
      "outputs": [
        {
          "internalType": "address",
          "name": "",
          "type": "address"
        }
      ],
      "stateMutability": "view",
      "type": "function"
    },
    {
      "inputs": [
        {
          "internalType": "bytes32",
          "name": "role",
          "type": "bytes32"
        }
      ],
      "name": "getRoleAdmin",
      "outputs": [
        {
          "internalType": "bytes32",
          "name": "",
          "type": "bytes32"
        }
      ],
      "stateMutability": "view",
      "type": "function"
    },
    {
      "inputs": [
        {
          "internalType": "bytes32",
          "name": "role",
          "type": "bytes32"
        },
        {
          "internalType": "address",
          "name": "account",
          "type": "address"
        }
      ],
      "name": "grantRole",
      "outputs": [],
      "stateMutability": "nonpayable",
      "type": "function"
    },
    {
      "inputs": [
        {
          "internalType": "bytes32",
          "name": "role",
          "type": "bytes32"
        },
        {
          "internalType": "address",
          "name": "account",
          "type": "address"
        }
      ],
      "name": "hasRole",
      "outputs": [
        {
          "internalType": "bool",
          "name": "",
          "type": "bool"
        }
      ],
      "stateMutability": "view",
      "type": "function"
    },
    {
      "inputs": [
        {
          "internalType": "address",
          "name": "owner",
          "type": "address"
        },
        {
          "internalType": "address",
          "name": "operator",
          "type": "address"
        }
      ],
      "name": "isApprovedForAll",
      "outputs": [
        {
          "internalType": "bool",
          "name": "",
          "type": "bool"
        }
      ],
      "stateMutability": "view",
      "type": "function"
    },
    {
      "inputs": [],
      "name": "name",
      "outputs": [
        {
          "internalType": "string",
          "name": "",
          "type": "string"
        }
      ],
      "stateMutability": "view",
      "type": "function"
    },
    {
      "inputs": [
        {
          "internalType": "uint256",
          "name": "tokenId",
          "type": "uint256"
        }
      ],
      "name": "ownerOf",
      "outputs": [
        {
          "internalType": "address",
          "name": "",
          "type": "address"
        }
      ],
      "stateMutability": "view",
      "type": "function"
    },
    {
      "inputs": [],
      "name": "partTypeCnt",
      "outputs": [
        {
          "internalType": "uint256",
          "name": "",
          "type": "uint256"
        }
      ],
      "stateMutability": "view",
      "type": "function"
    },
    {
      "inputs": [],
      "name": "paused",
      "outputs": [
        {
          "internalType": "bool",
          "name": "",
          "type": "bool"
        }
      ],
      "stateMutability": "view",
      "type": "function"
    },
    {
      "inputs": [
        {
          "internalType": "bytes32",
          "name": "role",
          "type": "bytes32"
        },
        {
          "internalType": "address",
          "name": "account",
          "type": "address"
        }
      ],
      "name": "renounceRole",
      "outputs": [],
      "stateMutability": "nonpayable",
      "type": "function"
    },
    {
      "inputs": [
        {
          "internalType": "bytes32",
          "name": "role",
          "type": "bytes32"
        },
        {
          "internalType": "address",
          "name": "account",
          "type": "address"
        }
      ],
      "name": "revokeRole",
      "outputs": [],
      "stateMutability": "nonpayable",
      "type": "function"
    },
    {
      "inputs": [
        {
          "internalType": "address",
          "name": "from",
          "type": "address"
        },
        {
          "internalType": "address",
          "name": "to",
          "type": "address"
        },
        {
          "internalType": "uint256",
          "name": "tokenId",
          "type": "uint256"
        }
      ],
      "name": "safeTransferFrom",
      "outputs": [],
      "stateMutability": "nonpayable",
      "type": "function"
    },
    {
      "inputs": [
        {
          "internalType": "address",
          "name": "from",
          "type": "address"
        },
        {
          "internalType": "address",
          "name": "to",
          "type": "address"
        },
        {
          "internalType": "uint256",
          "name": "tokenId",
          "type": "uint256"
        },
        {
          "internalType": "bytes",
          "name": "_data",
          "type": "bytes"
        }
      ],
      "name": "safeTransferFrom",
      "outputs": [],
      "stateMutability": "nonpayable",
      "type": "function"
    },
    {
      "inputs": [
        {
          "internalType": "address",
          "name": "operator",
          "type": "address"
        },
        {
          "internalType": "bool",
          "name": "approved",
          "type": "bool"
        }
      ],
      "name": "setApprovalForAll",
      "outputs": [],
      "stateMutability": "nonpayable",
      "type": "function"
    },
    {
      "inputs": [],
      "name": "symbol",
      "outputs": [
        {
          "internalType": "string",
          "name": "",
          "type": "string"
        }
      ],
      "stateMutability": "view",
      "type": "function"
    },
    {
      "inputs": [
        {
          "internalType": "uint256",
          "name": "tokenId",
          "type": "uint256"
        }
      ],
      "name": "tokenURI",
      "outputs": [
        {
          "internalType": "string",
          "name": "",
          "type": "string"
        }
      ],
      "stateMutability": "view",
      "type": "function"
    },
    {
      "inputs": [],
      "name": "tokenURIPrefix",
      "outputs": [
        {
          "internalType": "string",
          "name": "",
          "type": "string"
        }
      ],
      "stateMutability": "view",
      "type": "function"
    },
    {
      "inputs": [
        {
          "internalType": "address",
          "name": "from",
          "type": "address"
        },
        {
          "internalType": "address",
          "name": "to",
          "type": "address"
        },
        {
          "internalType": "uint256",
          "name": "tokenId",
          "type": "uint256"
        }
      ],
      "name": "transferFrom",
      "outputs": [],
      "stateMutability": "nonpayable",
      "type": "function"
    },
    {
      "inputs": [],
      "name": "pause",
      "outputs": [],
      "stateMutability": "nonpayable",
      "type": "function"
    },
    {
      "inputs": [],
      "name": "unpause",
      "outputs": [],
      "stateMutability": "nonpayable",
      "type": "function"
    },
    {
      "inputs": [
        {
          "internalType": "address",
          "name": "to",
          "type": "address"
        }
      ],
      "name": "safeMint",
      "outputs": [],
      "stateMutability": "nonpayable",
      "type": "function"
    },
    {
      "inputs": [
        {
          "internalType": "bytes4",
          "name": "interfaceId",
          "type": "bytes4"
        }
      ],
      "name": "supportsInterface",
      "outputs": [
        {
          "internalType": "bool",
          "name": "",
          "type": "bool"
        }
      ],
      "stateMutability": "view",
      "type": "function"
    },
    {
      "inputs": [
        {
          "internalType": "string",
          "name": "newTokenURIPrefix",
          "type": "string"
        }
      ],
      "name": "setTokenURIPrefix",
      "outputs": [],
      "stateMutability": "nonpayable",
      "type": "function"
    },
    {
      "inputs": [
        {
          "internalType": "address",
          "name": "addr",
          "type": "address"
        }
      ],
      "name": "getMetaPassport",
      "outputs": [
        {
          "internalType": "uint256",
          "name": "",
          "type": "uint256"
        }
      ],
      "stateMutability": "view",
      "type": "function"
    },
    {
      "inputs": [
        {
          "internalType": "address",
          "name": "newavatarPartAddress",
          "type": "address"
        }
      ],
      "name": "setAvatarPartAddress",
      "outputs": [],
      "stateMutability": "nonpayable",
      "type": "function"
    },
    {
      "inputs": [
        {
          "internalType": "address",
          "name": "newAvatarSetAddress",
          "type": "address"
        }
      ],
      "name": "setAvatarSetAddress",
      "outputs": [],
      "stateMutability": "nonpayable",
      "type": "function"
    },
    {
      "inputs": [
        {
          "internalType": "uint256",
          "name": "newMax",
          "type": "uint256"
        }
      ],
      "name": "setPartTypeCnt",
      "outputs": [],
      "stateMutability": "nonpayable",
      "type": "function"
    },
    {
      "inputs": [
        {
          "internalType": "uint256",
          "name": "mpTokenId",
          "type": "uint256"
        },
        {
          "internalType": "uint256",
          "name": "avatarPartId",
          "type": "uint256"
        }
      ],
      "name": "bindAvatarPart",
      "outputs": [],
      "stateMutability": "nonpayable",
      "type": "function"
    },
    {
      "inputs": [
        {
          "internalType": "uint256",
          "name": "mpTokenId",
          "type": "uint256"
        },
        {
          "internalType": "uint256[]",
          "name": "partIds",
          "type": "uint256[]"
        }
      ],
      "name": "checkFirstBindAvatar",
      "outputs": [],
      "stateMutability": "nonpayable",
      "type": "function"
    },
    {
      "inputs": [
        {
          "internalType": "uint256",
          "name": "mpTokenId",
          "type": "uint256"
        }
      ],
      "name": "getBindAvatarParts",
      "outputs": [
        {
          "internalType": "uint256[]",
          "name": "",
          "type": "uint256[]"
        }
      ],
      "stateMutability": "view",
      "type": "function"
    },
    {
      "inputs": [
        {
          "internalType": "uint256",
          "name": "mpTokenId",
          "type": "uint256"
        },
        {
          "internalType": "uint256",
          "name": "avatarPartId",
          "type": "uint256"
        }
      ],
      "name": "isBindAvatarPart",
      "outputs": [
        {
          "internalType": "bool",
          "name": "",
          "type": "bool"
        }
      ],
      "stateMutability": "view",
      "type": "function"
    },
    {
      "inputs": [
        {
          "internalType": "uint256[]",
          "name": "partIds",
          "type": "uint256[]"
        }
      ],
      "name": "setMyCurrentAvatar",
      "outputs": [],
      "stateMutability": "nonpayable",
      "type": "function"
    },
    {
      "inputs": [],
      "name": "getMyCurrentAvatar",
      "outputs": [
        {
          "internalType": "uint256[]",
          "name": "",
          "type": "uint256[]"
        }
      ],
      "stateMutability": "view",
      "type": "function"
    }
  ],
  "bytecode": "0x608060405260405180602001604052806000815250600990805190602001906200002b9291906200030b565b506004600c553480156200003e57600080fd5b506040518060400160405280600c81526020017f4d65746150617373706f727400000000000000000000000000000000000000008152506040518060400160405280600281526020017f4d500000000000000000000000000000000000000000000000000000000000008152508160009080519060200190620000c39291906200030b565b508060019080519060200190620000dc9291906200030b565b5050506000600660006101000a81548160ff0219169083151502179055506200010f6000801b336200019060201b60201c565b620001417f65d7a28e3265b37a6474929f336521b332c1681b933f6cb9f3376673440d862a336200019060201b60201c565b620001737f9f2df0fed2c77648de5860a4cc508cd0818c85b8b8a1ab4ceeef8d981c8956a6336200019060201b60201c565b6200018a60086200028260201b62001a9f1760201c565b62000420565b620001a282826200029860201b60201c565b6200027e5760016007600084815260200190815260200160002060000160008373ffffffffffffffffffffffffffffffffffffffff1673ffffffffffffffffffffffffffffffffffffffff16815260200190815260200160002060006101000a81548160ff021916908315150217905550620002236200030360201b60201c565b73ffffffffffffffffffffffffffffffffffffffff168173ffffffffffffffffffffffffffffffffffffffff16837f2f8788117e7eff1d82e926ec794901d17c78024a50270940304540a733656f0d60405160405180910390a45b5050565b6001816000016000828254019250508190555050565b60006007600084815260200190815260200160002060000160008373ffffffffffffffffffffffffffffffffffffffff1673ffffffffffffffffffffffffffffffffffffffff16815260200190815260200160002060009054906101000a900460ff16905092915050565b600033905090565b8280546200031990620003ea565b90600052602060002090601f0160209004810192826200033d576000855562000389565b82601f106200035857805160ff191683800117855562000389565b8280016001018555821562000389579182015b82811115620003885782518255916020019190600101906200036b565b5b5090506200039891906200039c565b5090565b5b80821115620003b75760008160009055506001016200039d565b5090565b7f4e487b7100000000000000000000000000000000000000000000000000000000600052602260045260246000fd5b600060028204905060018216806200040357607f821691505b602082108114156200041a5762000419620003bb565b5b50919050565b614f1580620004306000396000f3fe608060405234801561001057600080fd5b50600436106102535760003560e01c80636840f2db11610146578063a22cb465116100c3578063cc25d89f11610087578063cc25d89f146106ce578063d5391393146106ea578063d547741f14610708578063e63ab1e914610724578063e985e9c514610742578063ffd9b30c1461077257610253565b8063a22cb4651461062a578063b88d4fde14610646578063bdb104a314610662578063c0ac998314610680578063c87b56dd1461069e57610253565b8063888c3bf31161010a578063888c3bf31461058657806391d14854146105a257806395d89b41146105d257806399e0dd7c146105f0578063a217fddf1461060c57610253565b80636840f2db146104d05780636d4fe64d1461050057806370a082311461053057806380348526146105605780638456cb591461057c57610253565b80632f2ff15d116101d457806342966c681161019857806342966c681461042e5780635c975abb1461044a5780636352211e1461046857806364dc579d1461049857806366a5d9c2146104b457610253565b80632f2ff15d146103b457806336568abe146103d05780633f4ba83a146103ec57806340d097c3146103f657806342842e0e1461041257610253565b80630eaa02e21161021b5780630eaa02e2146103105780631f328ba91461032e57806323b872dd1461034a578063248a9ca3146103665780632c72e2d21461039657610253565b806301ffc9a71461025857806304b30a201461028857806306fdde03146102a6578063081812fc146102c4578063095ea7b3146102f4575b600080fd5b610272600480360381019061026d919061326e565b6107a2565b60405161027f91906132b6565b60405180910390f35b6102906107b4565b60405161029d91906132ea565b60405180910390f35b6102ae6107ba565b6040516102bb919061339e565b60405180910390f35b6102de60048036038101906102d991906133ec565b61084c565b6040516102eb919061345a565b60405180910390f35b61030e600480360381019061030991906134a1565b6108d1565b005b6103186109e9565b604051610325919061345a565b60405180910390f35b610348600480360381019061034391906134e1565b610a0f565b005b610364600480360381019061035f919061350e565b610a69565b005b610380600480360381019061037b9190613597565b610ac9565b60405161038d91906135d3565b60405180910390f35b61039e610ae9565b6040516103ab919061345a565b60405180910390f35b6103ce60048036038101906103c991906135ee565b610b0f565b005b6103ea60048036038101906103e591906135ee565b610b38565b005b6103f4610bbb565b005b610410600480360381019061040b91906134e1565b610bf8565b005b61042c6004803603810190610427919061350e565b610c8a565b005b610448600480360381019061044391906133ec565b610caa565b005b610452610d06565b60405161045f91906132b6565b60405180910390f35b610482600480360381019061047d91906133ec565b610d1d565b60405161048f919061345a565b60405180910390f35b6104b260048036038101906104ad91906133ec565b610dcf565b005b6104ce60048036038101906104c99190613776565b610def565b005b6104ea60048036038101906104e591906134e1565b610f74565b6040516104f791906132ea565b60405180910390f35b61051a600480360381019061051591906137bf565b610fbd565b60405161052791906132b6565b60405180910390f35b61054a600480360381019061054591906134e1565b610ff9565b60405161055791906132ea565b60405180910390f35b61057a600480360381019061057591906134e1565b6110b1565b005b61058461110b565b005b6105a0600480360381019061059b91906137bf565b611148565b005b6105bc60048036038101906105b791906135ee565b6112fb565b6040516105c991906132b6565b60405180910390f35b6105da611366565b6040516105e7919061339e565b60405180910390f35b61060a600480360381019061060591906138b4565b6113f8565b005b610614611428565b60405161062191906135d3565b60405180910390f35b610644600480360381019061063f9190613929565b61142f565b005b610660600480360381019061065b9190613a0a565b611445565b005b61066a6114a7565b6040516106779190613b4b565b60405180910390f35b6106886115bb565b604051610695919061339e565b60405180910390f35b6106b860048036038101906106b391906133ec565b611649565b6040516106c5919061339e565b60405180910390f35b6106e860048036038101906106e39190613bc8565b6116f0565b005b6106f261192f565b6040516106ff91906135d3565b60405180910390f35b610722600480360381019061071d91906135ee565b611953565b005b61072c61197c565b60405161073991906135d3565b60405180910390f35b61075c60048036038101906107579190613c28565b6119a0565b60405161076991906132b6565b60405180910390f35b61078c600480360381019061078791906133ec565b611a34565b6040516107999190613b4b565b60405180910390f35b60006107ad82611ab5565b9050919050565b600c5481565b6060600080546107c990613c97565b80601f01602080910402602001604051908101604052809291908181526020018280546107f590613c97565b80156108425780601f1061081757610100808354040283529160200191610842565b820191906000526020600020905b81548152906001019060200180831161082557829003601f168201915b5050505050905090565b600061085782611b2f565b610896576040517f08c379a000000000000000000000000000000000000000000000000000000000815260040161088d90613d3b565b60405180910390fd5b6004600083815260200190815260200160002060009054906101000a900473ffffffffffffffffffffffffffffffffffffffff169050919050565b60006108dc82610d1d565b90508073ffffffffffffffffffffffffffffffffffffffff168373ffffffffffffffffffffffffffffffffffffffff16141561094d576040517f08c379a000000000000000000000000000000000000000000000000000000000815260040161094490613dcd565b60405180910390fd5b8073ffffffffffffffffffffffffffffffffffffffff1661096c611b9b565b73ffffffffffffffffffffffffffffffffffffffff16148061099b575061099a81610995611b9b565b6119a0565b5b6109da576040517f08c379a00000000000000000000000000000000000000000000000000000000081526004016109d190613e5f565b60405180910390fd5b6109e48383611ba3565b505050565b600a60009054906101000a900473ffffffffffffffffffffffffffffffffffffffff1681565b6000801b610a2481610a1f611b9b565b611c5c565b81600b60006101000a81548173ffffffffffffffffffffffffffffffffffffffff021916908373ffffffffffffffffffffffffffffffffffffffff1602179055505050565b610a7a610a74611b9b565b82611cf9565b610ab9576040517f08c379a0000000000000000000000000000000000000000000000000000000008152600401610ab090613ef1565b60405180910390fd5b610ac4838383611dd7565b505050565b600060076000838152602001908152602001600020600101549050919050565b600b60009054906101000a900473ffffffffffffffffffffffffffffffffffffffff1681565b610b1882610ac9565b610b2981610b24611b9b565b611c5c565b610b338383611ebb565b505050565b610b40611b9b565b73ffffffffffffffffffffffffffffffffffffffff168173ffffffffffffffffffffffffffffffffffffffff1614610bad576040517f08c379a0000000000000000000000000000000000000000000000000000000008152600401610ba490613f83565b60405180910390fd5b610bb78282611f9c565b5050565b7f65d7a28e3265b37a6474929f336521b332c1681b933f6cb9f3376673440d862a610bed81610be8611b9b565b611c5c565b610bf561207e565b50565b7f9f2df0fed2c77648de5860a4cc508cd0818c85b8b8a1ab4ceeef8d981c8956a6610c2a81610c25611b9b565b611c5c565b6000610c366008612120565b9050610c426008611a9f565b610c4c838261212e565b7f56cce469321c273c1ec698791e8b23f0406dbc545a2a94395159138536f90fe78382604051610c7d929190613fa3565b60405180910390a1505050565b610ca583838360405180602001604052806000815250611445565b505050565b610cbb610cb5611b9b565b82611cf9565b610cfa576040517f08c379a0000000000000000000000000000000000000000000000000000000008152600401610cf19061403e565b60405180910390fd5b610d038161214c565b50565b6000600660009054906101000a900460ff16905090565b6000806002600084815260200190815260200160002060009054906101000a900473ffffffffffffffffffffffffffffffffffffffff169050600073ffffffffffffffffffffffffffffffffffffffff168173ffffffffffffffffffffffffffffffffffffffff161415610dc6576040517f08c379a0000000000000000000000000000000000000000000000000000000008152600401610dbd906140d0565b60405180910390fd5b80915050919050565b6000801b610de481610ddf611b9b565b611c5c565b81600c819055505050565b600c54815114610e34576040517f08c379a0000000000000000000000000000000000000000000000000000000008152600401610e2b90614162565b60405180910390fd5b6000610e3f33610f74565b905060008111610e84576040517f08c379a0000000000000000000000000000000000000000000000000000000008152600401610e7b906141ce565b60405180910390fd5b60005b600c54811015610f36576000838281518110610ea657610ea56141ee565b5b60200260200101519050610eba8382610fbd565b610ef9576040517f08c379a0000000000000000000000000000000000000000000000000000000008152600401610ef09061428f565b60405180910390fd5b8060106000858152602001908152602001600020600084815260200190815260200160002081905550508080610f2e906142de565b915050610e87565b507f2dcaa102ada60e63fc890b32ed72480092a7323c45f9de9f0b8f80ffa27f743c8183604051610f68929190614327565b60405180910390a15050565b6000600d60008373ffffffffffffffffffffffffffffffffffffffff1673ffffffffffffffffffffffffffffffffffffffff168152602001908152602001600020549050919050565b6000600e6000848152602001908152602001600020600083815260200190815260200160002060009054906101000a900460ff16905092915050565b60008073ffffffffffffffffffffffffffffffffffffffff168273ffffffffffffffffffffffffffffffffffffffff16141561106a576040517f08c379a0000000000000000000000000000000000000000000000000000000008152600401611061906143c9565b60405180910390fd5b600360008373ffffffffffffffffffffffffffffffffffffffff1673ffffffffffffffffffffffffffffffffffffffff168152602001908152602001600020549050919050565b6000801b6110c6816110c1611b9b565b611c5c565b81600a60006101000a81548173ffffffffffffffffffffffffffffffffffffffff021916908373ffffffffffffffffffffffffffffffffffffffff1602179055505050565b7f65d7a28e3265b37a6474929f336521b332c1681b933f6cb9f3376673440d862a61113d81611138611b9b565b611c5c565b61114561225d565b50565b600b60009054906101000a900473ffffffffffffffffffffffffffffffffffffffff1673ffffffffffffffffffffffffffffffffffffffff163373ffffffffffffffffffffffffffffffffffffffff1614806111f15750600a60009054906101000a900473ffffffffffffffffffffffffffffffffffffffff1673ffffffffffffffffffffffffffffffffffffffff163373ffffffffffffffffffffffffffffffffffffffff16145b611230576040517f08c379a00000000000000000000000000000000000000000000000000000000081526004016112279061445b565b60405180910390fd5b6000151561123e8383610fbd565b151514156112f7576001600e6000848152602001908152602001600020600083815260200190815260200160002060006101000a81548160ff021916908315150217905550600f60008381526020019081526020016000208190806001815401808255809150506001900390600052602060002001600090919091909150557f2619b09f0a7aab6c6b4bd5089e0dd535a2ab344215abb5c6531126ffffd262e782826040516112ee92919061447b565b60405180910390a15b5050565b60006007600084815260200190815260200160002060000160008373ffffffffffffffffffffffffffffffffffffffff1673ffffffffffffffffffffffffffffffffffffffff16815260200190815260200160002060009054906101000a900460ff16905092915050565b60606001805461137590613c97565b80601f01602080910402602001604051908101604052809291908181526020018280546113a190613c97565b80156113ee5780601f106113c3576101008083540402835291602001916113ee565b820191906000526020600020905b8154815290600101906020018083116113d157829003601f168201915b5050505050905090565b6000801b61140d81611408611b9b565b611c5c565b816009908051906020019061142392919061315f565b505050565b6000801b81565b61144161143a611b9b565b8383612300565b5050565b611456611450611b9b565b83611cf9565b611495576040517f08c379a000000000000000000000000000000000000000000000000000000000815260040161148c90613ef1565b60405180910390fd5b6114a18484848461246d565b50505050565b606060006114b433610f74565b9050600081116114f9576040517f08c379a00000000000000000000000000000000000000000000000000000000081526004016114f0906141ce565b60405180910390fd5b6000600c5467ffffffffffffffff81111561151757611516613633565b5b6040519080825280602002602001820160405280156115455781602001602082028036833780820191505090505b50905060005b600c548110156115b257600060106000858152602001908152602001600020600083815260200190815260200160002054905080838381518110611592576115916141ee565b5b6020026020010181815250505080806115aa906142de565b91505061154b565b50809250505090565b600980546115c890613c97565b80601f01602080910402602001604051908101604052809291908181526020018280546115f490613c97565b80156116415780601f1061161657610100808354040283529160200191611641565b820191906000526020600020905b81548152906001019060200180831161162457829003601f168201915b505050505081565b606061165482611b2f565b611693576040517f08c379a000000000000000000000000000000000000000000000000000000000815260040161168a90614516565b60405180910390fd5b600061169d6124c9565b905060008151116116bd57604051806020016040528060008152506116e8565b806116c78461255b565b6040516020016116d8929190614572565b6040516020818303038152906040525b915050919050565b600b60009054906101000a900473ffffffffffffffffffffffffffffffffffffffff1673ffffffffffffffffffffffffffffffffffffffff163373ffffffffffffffffffffffffffffffffffffffff1614611780576040517f08c379a00000000000000000000000000000000000000000000000000000000081526004016117779061445b565b60405180910390fd5b60006010600085815260200190815260200160002060008081526020019081526020016000205411156117b25761192a565b600c5482829050146117f9576040517f08c379a00000000000000000000000000000000000000000000000000000000081526004016117f090614162565b60405180910390fd5b6000831161183c576040517f08c379a0000000000000000000000000000000000000000000000000000000008152600401611833906141ce565b60405180910390fd5b60005b600c548110156118ed57600083838381811061185e5761185d6141ee565b5b9050602002013590506118718582610fbd565b6118b0576040517f08c379a00000000000000000000000000000000000000000000000000000000081526004016118a79061428f565b60405180910390fd5b80601060008781526020019081526020016000206000848152602001908152602001600020819055505080806118e5906142de565b91505061183f565b507f2dcaa102ada60e63fc890b32ed72480092a7323c45f9de9f0b8f80ffa27f743c838383604051611921939291906145f7565b60405180910390a15b505050565b7f9f2df0fed2c77648de5860a4cc508cd0818c85b8b8a1ab4ceeef8d981c8956a681565b61195c82610ac9565b61196d81611968611b9b565b611c5c565b6119778383611f9c565b505050565b7f65d7a28e3265b37a6474929f336521b332c1681b933f6cb9f3376673440d862a81565b6000600560008473ffffffffffffffffffffffffffffffffffffffff1673ffffffffffffffffffffffffffffffffffffffff16815260200190815260200160002060008373ffffffffffffffffffffffffffffffffffffffff1673ffffffffffffffffffffffffffffffffffffffff16815260200190815260200160002060009054906101000a900460ff16905092915050565b6060600f6000838152602001908152602001600020805480602002602001604051908101604052809291908181526020018280548015611a9357602002820191906000526020600020905b815481526020019060010190808311611a7f575b50505050509050919050565b6001816000016000828254019250508190555050565b60007f7965db0b000000000000000000000000000000000000000000000000000000007bffffffffffffffffffffffffffffffffffffffffffffffffffffffff1916827bffffffffffffffffffffffffffffffffffffffffffffffffffffffff19161480611b285750611b27826126bc565b5b9050919050565b60008073ffffffffffffffffffffffffffffffffffffffff166002600084815260200190815260200160002060009054906101000a900473ffffffffffffffffffffffffffffffffffffffff1673ffffffffffffffffffffffffffffffffffffffff1614159050919050565b600033905090565b816004600083815260200190815260200160002060006101000a81548173ffffffffffffffffffffffffffffffffffffffff021916908373ffffffffffffffffffffffffffffffffffffffff160217905550808273ffffffffffffffffffffffffffffffffffffffff16611c1683610d1d565b73ffffffffffffffffffffffffffffffffffffffff167f8c5be1e5ebec7d5bd14f71427d1e84f3dd0314c0f7b2291e5b200ac8c7c3b92560405160405180910390a45050565b611c6682826112fb565b611cf557611c8b8173ffffffffffffffffffffffffffffffffffffffff16601461279e565b611c998360001c602061279e565b604051602001611caa9291906146c1565b6040516020818303038152906040526040517f08c379a0000000000000000000000000000000000000000000000000000000008152600401611cec919061339e565b60405180910390fd5b5050565b6000611d0482611b2f565b611d43576040517f08c379a0000000000000000000000000000000000000000000000000000000008152600401611d3a9061476d565b60405180910390fd5b6000611d4e83610d1d565b90508073ffffffffffffffffffffffffffffffffffffffff168473ffffffffffffffffffffffffffffffffffffffff161480611dbd57508373ffffffffffffffffffffffffffffffffffffffff16611da58461084c565b73ffffffffffffffffffffffffffffffffffffffff16145b80611dce5750611dcd81856119a0565b5b91505092915050565b6000611de283610ff9565b11611e22576040517f08c379a0000000000000000000000000000000000000000000000000000000008152600401611e19906147ff565b60405180910390fd5b611e2d8383836129da565b6000600d60008573ffffffffffffffffffffffffffffffffffffffff1673ffffffffffffffffffffffffffffffffffffffff1681526020019081526020016000208190555080600d60008473ffffffffffffffffffffffffffffffffffffffff1673ffffffffffffffffffffffffffffffffffffffff16815260200190815260200160002081905550505050565b611ec582826112fb565b611f985760016007600084815260200190815260200160002060000160008373ffffffffffffffffffffffffffffffffffffffff1673ffffffffffffffffffffffffffffffffffffffff16815260200190815260200160002060006101000a81548160ff021916908315150217905550611f3d611b9b565b73ffffffffffffffffffffffffffffffffffffffff168173ffffffffffffffffffffffffffffffffffffffff16837f2f8788117e7eff1d82e926ec794901d17c78024a50270940304540a733656f0d60405160405180910390a45b5050565b611fa682826112fb565b1561207a5760006007600084815260200190815260200160002060000160008373ffffffffffffffffffffffffffffffffffffffff1673ffffffffffffffffffffffffffffffffffffffff16815260200190815260200160002060006101000a81548160ff02191690831515021790555061201f611b9b565b73ffffffffffffffffffffffffffffffffffffffff168173ffffffffffffffffffffffffffffffffffffffff16837ff6391f5c32d9c69d2a47ea670b442974b53935d1edc7fd64eb21e047a839171b60405160405180910390a45b5050565b612086610d06565b6120c5576040517f08c379a00000000000000000000000000000000000000000000000000000000081526004016120bc9061486b565b60405180910390fd5b6000600660006101000a81548160ff0219169083151502179055507f5db9ee0a495bf2e6ff9c91a7834c1ba4fdd244a5e8aa4e537bd38aeae4b073aa612109611b9b565b604051612116919061345a565b60405180910390a1565b600081600001549050919050565b612148828260405180602001604052806000815250612c36565b5050565b600061215782610d1d565b905061216581600084612c91565b612170600083611ba3565b6001600360008373ffffffffffffffffffffffffffffffffffffffff1673ffffffffffffffffffffffffffffffffffffffff16815260200190815260200160002060008282546121c0919061488b565b925050819055506002600083815260200190815260200160002060006101000a81549073ffffffffffffffffffffffffffffffffffffffff021916905581600073ffffffffffffffffffffffffffffffffffffffff168273ffffffffffffffffffffffffffffffffffffffff167fddf252ad1be2c89b69c2b068fc378daa952ba7f163c4a11628f55a4df523b3ef60405160405180910390a45050565b612265610d06565b156122a5576040517f08c379a000000000000000000000000000000000000000000000000000000000815260040161229c9061490b565b60405180910390fd5b6001600660006101000a81548160ff0219169083151502179055507f62e78cea01bee320cd4e420270b5ea74000d11b0c9f74754ebdbfc544b05a2586122e9611b9b565b6040516122f6919061345a565b60405180910390a1565b8173ffffffffffffffffffffffffffffffffffffffff168373ffffffffffffffffffffffffffffffffffffffff16141561236f576040517f08c379a000000000000000000000000000000000000000000000000000000000815260040161236690614977565b60405180910390fd5b80600560008573ffffffffffffffffffffffffffffffffffffffff1673ffffffffffffffffffffffffffffffffffffffff16815260200190815260200160002060008473ffffffffffffffffffffffffffffffffffffffff1673ffffffffffffffffffffffffffffffffffffffff16815260200190815260200160002060006101000a81548160ff0219169083151502179055508173ffffffffffffffffffffffffffffffffffffffff168373ffffffffffffffffffffffffffffffffffffffff167f17307eab39ab6107e8899845ad3d59bd9653f200f220920489ca2b5937696c318360405161246091906132b6565b60405180910390a3505050565b612478848484611dd7565b61248484848484612ce9565b6124c3576040517f08c379a00000000000000000000000000000000000000000000000000000000081526004016124ba90614a09565b60405180910390fd5b50505050565b6060600980546124d890613c97565b80601f016020809104026020016040519081016040528092919081815260200182805461250490613c97565b80156125515780601f1061252657610100808354040283529160200191612551565b820191906000526020600020905b81548152906001019060200180831161253457829003601f168201915b5050505050905090565b606060008214156125a3576040518060400160405280600181526020017f300000000000000000000000000000000000000000000000000000000000000081525090506126b7565b600082905060005b600082146125d55780806125be906142de565b915050600a826125ce9190614a58565b91506125ab565b60008167ffffffffffffffff8111156125f1576125f0613633565b5b6040519080825280601f01601f1916602001820160405280156126235781602001600182028036833780820191505090505b5090505b600085146126b05760018261263c919061488b565b9150600a8561264b9190614a89565b60306126579190614aba565b60f81b81838151811061266d5761266c6141ee565b5b60200101907effffffffffffffffffffffffffffffffffffffffffffffffffffffffffffff1916908160001a905350600a856126a99190614a58565b9450612627565b8093505050505b919050565b60007f80ac58cd000000000000000000000000000000000000000000000000000000007bffffffffffffffffffffffffffffffffffffffffffffffffffffffff1916827bffffffffffffffffffffffffffffffffffffffffffffffffffffffff1916148061278757507f5b5e139f000000000000000000000000000000000000000000000000000000007bffffffffffffffffffffffffffffffffffffffffffffffffffffffff1916827bffffffffffffffffffffffffffffffffffffffffffffffffffffffff1916145b80612797575061279682612e71565b5b9050919050565b6060600060028360026127b19190614b10565b6127bb9190614aba565b67ffffffffffffffff8111156127d4576127d3613633565b5b6040519080825280601f01601f1916602001820160405280156128065781602001600182028036833780820191505090505b5090507f30000000000000000000000000000000000000000000000000000000000000008160008151811061283e5761283d6141ee565b5b60200101907effffffffffffffffffffffffffffffffffffffffffffffffffffffffffffff1916908160001a9053507f7800000000000000000000000000000000000000000000000000000000000000816001815181106128a2576128a16141ee565b5b60200101907effffffffffffffffffffffffffffffffffffffffffffffffffffffffffffff1916908160001a905350600060018460026128e29190614b10565b6128ec9190614aba565b90505b600181111561298c577f3031323334353637383961626364656600000000000000000000000000000000600f86166010811061292e5761292d6141ee565b5b1a60f81b828281518110612945576129446141ee565b5b60200101907effffffffffffffffffffffffffffffffffffffffffffffffffffffffffffff1916908160001a905350600485901c94508061298590614b6a565b90506128ef565b50600084146129d0576040517f08c379a00000000000000000000000000000000000000000000000000000000081526004016129c790614be0565b60405180910390fd5b8091505092915050565b8273ffffffffffffffffffffffffffffffffffffffff166129fa82610d1d565b73ffffffffffffffffffffffffffffffffffffffff1614612a50576040517f08c379a0000000000000000000000000000000000000000000000000000000008152600401612a4790614c72565b60405180910390fd5b600073ffffffffffffffffffffffffffffffffffffffff168273ffffffffffffffffffffffffffffffffffffffff161415612ac0576040517f08c379a0000000000000000000000000000000000000000000000000000000008152600401612ab790614d04565b60405180910390fd5b612acb838383612c91565b612ad6600082611ba3565b6001600360008573ffffffffffffffffffffffffffffffffffffffff1673ffffffffffffffffffffffffffffffffffffffff1681526020019081526020016000206000828254612b26919061488b565b925050819055506001600360008473ffffffffffffffffffffffffffffffffffffffff1673ffffffffffffffffffffffffffffffffffffffff1681526020019081526020016000206000828254612b7d9190614aba565b92505081905550816002600083815260200190815260200160002060006101000a81548173ffffffffffffffffffffffffffffffffffffffff021916908373ffffffffffffffffffffffffffffffffffffffff160217905550808273ffffffffffffffffffffffffffffffffffffffff168473ffffffffffffffffffffffffffffffffffffffff167fddf252ad1be2c89b69c2b068fc378daa952ba7f163c4a11628f55a4df523b3ef60405160405180910390a4505050565b612c408383612edb565b612c4d6000848484612ce9565b612c8c576040517f08c379a0000000000000000000000000000000000000000000000000000000008152600401612c8390614a09565b60405180910390fd5b505050565b612c99610d06565b15612cd9576040517f08c379a0000000000000000000000000000000000000000000000000000000008152600401612cd09061490b565b60405180910390fd5b612ce4838383612f79565b505050565b6000612d0a8473ffffffffffffffffffffffffffffffffffffffff16612f7e565b15612e64578373ffffffffffffffffffffffffffffffffffffffff1663150b7a02612d33611b9b565b8786866040518563ffffffff1660e01b8152600401612d559493929190614d79565b6020604051808303816000875af1925050508015612d9157506040513d601f19601f82011682018060405250810190612d8e9190614dda565b60015b612e14573d8060008114612dc1576040519150601f19603f3d011682016040523d82523d6000602084013e612dc6565b606091505b50600081511415612e0c576040517f08c379a0000000000000000000000000000000000000000000000000000000008152600401612e0390614a09565b60405180910390fd5b805181602001fd5b63150b7a0260e01b7bffffffffffffffffffffffffffffffffffffffffffffffffffffffff1916817bffffffffffffffffffffffffffffffffffffffffffffffffffffffff191614915050612e69565b600190505b949350505050565b60007f01ffc9a7000000000000000000000000000000000000000000000000000000007bffffffffffffffffffffffffffffffffffffffffffffffffffffffff1916827bffffffffffffffffffffffffffffffffffffffffffffffffffffffff1916149050919050565b6000612ee683610ff9565b1115612f27576040517f08c379a0000000000000000000000000000000000000000000000000000000008152600401612f1e906147ff565b60405180910390fd5b612f318282612f91565b80600d60008473ffffffffffffffffffffffffffffffffffffffff1673ffffffffffffffffffffffffffffffffffffffff168152602001908152602001600020819055505050565b505050565b600080823b905060008111915050919050565b600073ffffffffffffffffffffffffffffffffffffffff168273ffffffffffffffffffffffffffffffffffffffff161415613001576040517f08c379a0000000000000000000000000000000000000000000000000000000008152600401612ff890614e53565b60405180910390fd5b61300a81611b2f565b1561304a576040517f08c379a000000000000000000000000000000000000000000000000000000000815260040161304190614ebf565b60405180910390fd5b61305660008383612c91565b6001600360008473ffffffffffffffffffffffffffffffffffffffff1673ffffffffffffffffffffffffffffffffffffffff16815260200190815260200160002060008282546130a69190614aba565b92505081905550816002600083815260200190815260200160002060006101000a81548173ffffffffffffffffffffffffffffffffffffffff021916908373ffffffffffffffffffffffffffffffffffffffff160217905550808273ffffffffffffffffffffffffffffffffffffffff16600073ffffffffffffffffffffffffffffffffffffffff167fddf252ad1be2c89b69c2b068fc378daa952ba7f163c4a11628f55a4df523b3ef60405160405180910390a45050565b82805461316b90613c97565b90600052602060002090601f01602090048101928261318d57600085556131d4565b82601f106131a657805160ff19168380011785556131d4565b828001600101855582156131d4579182015b828111156131d35782518255916020019190600101906131b8565b5b5090506131e191906131e5565b5090565b5b808211156131fe5760008160009055506001016131e6565b5090565b6000604051905090565b600080fd5b600080fd5b60007fffffffff0000000000000000000000000000000000000000000000000000000082169050919050565b61324b81613216565b811461325657600080fd5b50565b60008135905061326881613242565b92915050565b6000602082840312156132845761328361320c565b5b600061329284828501613259565b91505092915050565b60008115159050919050565b6132b08161329b565b82525050565b60006020820190506132cb60008301846132a7565b92915050565b6000819050919050565b6132e4816132d1565b82525050565b60006020820190506132ff60008301846132db565b92915050565b600081519050919050565b600082825260208201905092915050565b60005b8381101561333f578082015181840152602081019050613324565b8381111561334e576000848401525b50505050565b6000601f19601f8301169050919050565b600061337082613305565b61337a8185613310565b935061338a818560208601613321565b61339381613354565b840191505092915050565b600060208201905081810360008301526133b88184613365565b905092915050565b6133c9816132d1565b81146133d457600080fd5b50565b6000813590506133e6816133c0565b92915050565b6000602082840312156134025761340161320c565b5b6000613410848285016133d7565b91505092915050565b600073ffffffffffffffffffffffffffffffffffffffff82169050919050565b600061344482613419565b9050919050565b61345481613439565b82525050565b600060208201905061346f600083018461344b565b92915050565b61347e81613439565b811461348957600080fd5b50565b60008135905061349b81613475565b92915050565b600080604083850312156134b8576134b761320c565b5b60006134c68582860161348c565b92505060206134d7858286016133d7565b9150509250929050565b6000602082840312156134f7576134f661320c565b5b60006135058482850161348c565b91505092915050565b6000806000606084860312156135275761352661320c565b5b60006135358682870161348c565b93505060206135468682870161348c565b9250506040613557868287016133d7565b9150509250925092565b6000819050919050565b61357481613561565b811461357f57600080fd5b50565b6000813590506135918161356b565b92915050565b6000602082840312156135ad576135ac61320c565b5b60006135bb84828501613582565b91505092915050565b6135cd81613561565b82525050565b60006020820190506135e860008301846135c4565b92915050565b600080604083850312156136055761360461320c565b5b600061361385828601613582565b92505060206136248582860161348c565b9150509250929050565b600080fd5b7f4e487b7100000000000000000000000000000000000000000000000000000000600052604160045260246000fd5b61366b82613354565b810181811067ffffffffffffffff8211171561368a57613689613633565b5b80604052505050565b600061369d613202565b90506136a98282613662565b919050565b600067ffffffffffffffff8211156136c9576136c8613633565b5b602082029050602081019050919050565b600080fd5b60006136f26136ed846136ae565b613693565b90508083825260208201905060208402830185811115613715576137146136da565b5b835b8181101561373e578061372a88826133d7565b845260208401935050602081019050613717565b5050509392505050565b600082601f83011261375d5761375c61362e565b5b813561376d8482602086016136df565b91505092915050565b60006020828403121561378c5761378b61320c565b5b600082013567ffffffffffffffff8111156137aa576137a9613211565b5b6137b684828501613748565b91505092915050565b600080604083850312156137d6576137d561320c565b5b60006137e4858286016133d7565b92505060206137f5858286016133d7565b9150509250929050565b600080fd5b600067ffffffffffffffff82111561381f5761381e613633565b5b61382882613354565b9050602081019050919050565b82818337600083830152505050565b600061385761385284613804565b613693565b905082815260208101848484011115613873576138726137ff565b5b61387e848285613835565b509392505050565b600082601f83011261389b5761389a61362e565b5b81356138ab848260208601613844565b91505092915050565b6000602082840312156138ca576138c961320c565b5b600082013567ffffffffffffffff8111156138e8576138e7613211565b5b6138f484828501613886565b91505092915050565b6139068161329b565b811461391157600080fd5b50565b600081359050613923816138fd565b92915050565b600080604083850312156139405761393f61320c565b5b600061394e8582860161348c565b925050602061395f85828601613914565b9150509250929050565b600067ffffffffffffffff82111561398457613983613633565b5b61398d82613354565b9050602081019050919050565b60006139ad6139a884613969565b613693565b9050828152602081018484840111156139c9576139c86137ff565b5b6139d4848285613835565b509392505050565b600082601f8301126139f1576139f061362e565b5b8135613a0184826020860161399a565b91505092915050565b60008060008060808587031215613a2457613a2361320c565b5b6000613a328782880161348c565b9450506020613a438782880161348c565b9350506040613a54878288016133d7565b925050606085013567ffffffffffffffff811115613a7557613a74613211565b5b613a81878288016139dc565b91505092959194509250565b600081519050919050565b600082825260208201905092915050565b6000819050602082019050919050565b613ac2816132d1565b82525050565b6000613ad48383613ab9565b60208301905092915050565b6000602082019050919050565b6000613af882613a8d565b613b028185613a98565b9350613b0d83613aa9565b8060005b83811015613b3e578151613b258882613ac8565b9750613b3083613ae0565b925050600181019050613b11565b5085935050505092915050565b60006020820190508181036000830152613b658184613aed565b905092915050565b600080fd5b60008083601f840112613b8857613b8761362e565b5b8235905067ffffffffffffffff811115613ba557613ba4613b6d565b5b602083019150836020820283011115613bc157613bc06136da565b5b9250929050565b600080600060408486031215613be157613be061320c565b5b6000613bef868287016133d7565b935050602084013567ffffffffffffffff811115613c1057613c0f613211565b5b613c1c86828701613b72565b92509250509250925092565b60008060408385031215613c3f57613c3e61320c565b5b6000613c4d8582860161348c565b9250506020613c5e8582860161348c565b9150509250929050565b7f4e487b7100000000000000000000000000000000000000000000000000000000600052602260045260246000fd5b60006002820490506001821680613caf57607f821691505b60208210811415613cc357613cc2613c68565b5b50919050565b7f4552433732313a20617070726f76656420717565727920666f72206e6f6e657860008201527f697374656e7420746f6b656e0000000000000000000000000000000000000000602082015250565b6000613d25602c83613310565b9150613d3082613cc9565b604082019050919050565b60006020820190508181036000830152613d5481613d18565b9050919050565b7f4552433732313a20617070726f76616c20746f2063757272656e74206f776e6560008201527f7200000000000000000000000000000000000000000000000000000000000000602082015250565b6000613db7602183613310565b9150613dc282613d5b565b604082019050919050565b60006020820190508181036000830152613de681613daa565b9050919050565b7f4552433732313a20617070726f76652063616c6c6572206973206e6f74206f7760008201527f6e6572206e6f7220617070726f76656420666f7220616c6c0000000000000000602082015250565b6000613e49603883613310565b9150613e5482613ded565b604082019050919050565b60006020820190508181036000830152613e7881613e3c565b9050919050565b7f4552433732313a207472616e736665722063616c6c6572206973206e6f74206f60008201527f776e6572206e6f7220617070726f766564000000000000000000000000000000602082015250565b6000613edb603183613310565b9150613ee682613e7f565b604082019050919050565b60006020820190508181036000830152613f0a81613ece565b9050919050565b7f416363657373436f6e74726f6c3a2063616e206f6e6c792072656e6f756e636560008201527f20726f6c657320666f722073656c660000000000000000000000000000000000602082015250565b6000613f6d602f83613310565b9150613f7882613f11565b604082019050919050565b60006020820190508181036000830152613f9c81613f60565b9050919050565b6000604082019050613fb8600083018561344b565b613fc560208301846132db565b9392505050565b7f4552433732314275726e61626c653a2063616c6c6572206973206e6f74206f7760008201527f6e6572206e6f7220617070726f76656400000000000000000000000000000000602082015250565b6000614028603083613310565b915061403382613fcc565b604082019050919050565b600060208201905081810360008301526140578161401b565b9050919050565b7f4552433732313a206f776e657220717565727920666f72206e6f6e657869737460008201527f656e7420746f6b656e0000000000000000000000000000000000000000000000602082015250565b60006140ba602983613310565b91506140c58261405e565b604082019050919050565b600060208201905081810360008301526140e9816140ad565b9050919050565b7f4d65746150617373706f72743a20696e76616c69642070617274496420636f7560008201527f6e74000000000000000000000000000000000000000000000000000000000000602082015250565b600061414c602283613310565b9150614157826140f0565b604082019050919050565b6000602082019050818103600083015261417b8161413f565b9050919050565b7f4d65746150617373706f72743a206e6f206d65746170617373706f7274000000600082015250565b60006141b8601d83613310565b91506141c382614182565b602082019050919050565b600060208201905081810360008301526141e7816141ab565b9050919050565b7f4e487b7100000000000000000000000000000000000000000000000000000000600052603260045260246000fd5b7f4d65746150617373706f72743a2070617274206964206973206e6f742062696e60008201527f6400000000000000000000000000000000000000000000000000000000000000602082015250565b6000614279602183613310565b91506142848261421d565b604082019050919050565b600060208201905081810360008301526142a88161426c565b9050919050565b7f4e487b7100000000000000000000000000000000000000000000000000000000600052601160045260246000fd5b60006142e9826132d1565b91507fffffffffffffffffffffffffffffffffffffffffffffffffffffffffffffffff82141561431c5761431b6142af565b5b600182019050919050565b600060408201905061433c60008301856132db565b818103602083015261434e8184613aed565b90509392505050565b7f4552433732313a2062616c616e636520717565727920666f7220746865207a6560008201527f726f206164647265737300000000000000000000000000000000000000000000602082015250565b60006143b3602a83613310565b91506143be82614357565b604082019050919050565b600060208201905081810360008301526143e2816143a6565b9050919050565b7f4d65746150617373706f72743a206f6e6c792061766174617220636f6e74726160008201527f63742063616e2063616c6c20746869732066756e6374696f6e00000000000000602082015250565b6000614445603983613310565b9150614450826143e9565b604082019050919050565b6000602082019050818103600083015261447481614438565b9050919050565b600060408201905061449060008301856132db565b61449d60208301846132db565b9392505050565b7f4552433732314d657461646174613a2055524920717565727920666f72206e6f60008201527f6e6578697374656e7420746f6b656e0000000000000000000000000000000000602082015250565b6000614500602f83613310565b915061450b826144a4565b604082019050919050565b6000602082019050818103600083015261452f816144f3565b9050919050565b600081905092915050565b600061454c82613305565b6145568185614536565b9350614566818560208601613321565b80840191505092915050565b600061457e8285614541565b915061458a8284614541565b91508190509392505050565b600080fd5b60006145a78385613a98565b93507f07ffffffffffffffffffffffffffffffffffffffffffffffffffffffffffffff8311156145da576145d9614596565b5b6020830292506145eb838584613835565b82840190509392505050565b600060408201905061460c60008301866132db565b818103602083015261461f81848661459b565b9050949350505050565b7f416363657373436f6e74726f6c3a206163636f756e7420000000000000000000600082015250565b600061465f601783614536565b915061466a82614629565b601782019050919050565b7f206973206d697373696e6720726f6c6520000000000000000000000000000000600082015250565b60006146ab601183614536565b91506146b682614675565b601182019050919050565b60006146cc82614652565b91506146d88285614541565b91506146e38261469e565b91506146ef8284614541565b91508190509392505050565b7f4552433732313a206f70657261746f7220717565727920666f72206e6f6e657860008201527f697374656e7420746f6b656e0000000000000000000000000000000000000000602082015250565b6000614757602c83613310565b9150614762826146fb565b604082019050919050565b600060208201905081810360008301526147868161474a565b9050919050565b7f4d65746150617373706f72743a204561636820616464726573732063616e206f60008201527f6e6c792068617665206f6e65204d65746150617373706f727400000000000000602082015250565b60006147e9603983613310565b91506147f48261478d565b604082019050919050565b60006020820190508181036000830152614818816147dc565b9050919050565b7f5061757361626c653a206e6f7420706175736564000000000000000000000000600082015250565b6000614855601483613310565b91506148608261481f565b602082019050919050565b6000602082019050818103600083015261488481614848565b9050919050565b6000614896826132d1565b91506148a1836132d1565b9250828210156148b4576148b36142af565b5b828203905092915050565b7f5061757361626c653a2070617573656400000000000000000000000000000000600082015250565b60006148f5601083613310565b9150614900826148bf565b602082019050919050565b60006020820190508181036000830152614924816148e8565b9050919050565b7f4552433732313a20617070726f766520746f2063616c6c657200000000000000600082015250565b6000614961601983613310565b915061496c8261492b565b602082019050919050565b6000602082019050818103600083015261499081614954565b9050919050565b7f4552433732313a207472616e7366657220746f206e6f6e20455243373231526560008201527f63656976657220696d706c656d656e7465720000000000000000000000000000602082015250565b60006149f3603283613310565b91506149fe82614997565b604082019050919050565b60006020820190508181036000830152614a22816149e6565b9050919050565b7f4e487b7100000000000000000000000000000000000000000000000000000000600052601260045260246000fd5b6000614a63826132d1565b9150614a6e836132d1565b925082614a7e57614a7d614a29565b5b828204905092915050565b6000614a94826132d1565b9150614a9f836132d1565b925082614aaf57614aae614a29565b5b828206905092915050565b6000614ac5826132d1565b9150614ad0836132d1565b9250827fffffffffffffffffffffffffffffffffffffffffffffffffffffffffffffffff03821115614b0557614b046142af565b5b828201905092915050565b6000614b1b826132d1565b9150614b26836132d1565b9250817fffffffffffffffffffffffffffffffffffffffffffffffffffffffffffffffff0483118215151615614b5f57614b5e6142af565b5b828202905092915050565b6000614b75826132d1565b91506000821415614b8957614b886142af565b5b600182039050919050565b7f537472696e67733a20686578206c656e67746820696e73756666696369656e74600082015250565b6000614bca602083613310565b9150614bd582614b94565b602082019050919050565b60006020820190508181036000830152614bf981614bbd565b9050919050565b7f4552433732313a207472616e73666572206f6620746f6b656e2074686174206960008201527f73206e6f74206f776e0000000000000000000000000000000000000000000000602082015250565b6000614c5c602983613310565b9150614c6782614c00565b604082019050919050565b60006020820190508181036000830152614c8b81614c4f565b9050919050565b7f4552433732313a207472616e7366657220746f20746865207a65726f2061646460008201527f7265737300000000000000000000000000000000000000000000000000000000602082015250565b6000614cee602483613310565b9150614cf982614c92565b604082019050919050565b60006020820190508181036000830152614d1d81614ce1565b9050919050565b600081519050919050565b600082825260208201905092915050565b6000614d4b82614d24565b614d558185614d2f565b9350614d65818560208601613321565b614d6e81613354565b840191505092915050565b6000608082019050614d8e600083018761344b565b614d9b602083018661344b565b614da860408301856132db565b8181036060830152614dba8184614d40565b905095945050505050565b600081519050614dd481613242565b92915050565b600060208284031215614df057614def61320c565b5b6000614dfe84828501614dc5565b91505092915050565b7f4552433732313a206d696e7420746f20746865207a65726f2061646472657373600082015250565b6000614e3d602083613310565b9150614e4882614e07565b602082019050919050565b60006020820190508181036000830152614e6c81614e30565b9050919050565b7f4552433732313a20746f6b656e20616c7265616479206d696e74656400000000600082015250565b6000614ea9601c83613310565b9150614eb482614e73565b602082019050919050565b60006020820190508181036000830152614ed881614e9c565b905091905056fea2646970667358221220ea5ef22038a9f3dc4416db4c2baf76e31690c3a5f53e85a244bf705c443066ac64736f6c634300080a0033",
  "immutableReferences": {},
  "source": "// SPDX-License-Identifier: MIT\npragma solidity ^0.8.4;\n\nimport \"@openzeppelin/contracts/token/ERC721/ERC721.sol\";\nimport \"@openzeppelin/contracts/security/Pausable.sol\";\nimport \"@openzeppelin/contracts/access/AccessControl.sol\";\nimport \"@openzeppelin/contracts/token/ERC721/extensions/ERC721Burnable.sol\";\nimport \"@openzeppelin/contracts/utils/Counters.sol\";\n\ncontract MetaPassport is ERC721, Pausable, AccessControl, ERC721Burnable {\n    using Counters for Counters.Counter;\n\n    bytes32 public constant PAUSER_ROLE = keccak256(\"PAUSER_ROLE\");\n    bytes32 public constant MINTER_ROLE = keccak256(\"MINTER_ROLE\");\n    Counters.Counter private _tokenIdCounter;\n    string public tokenURIPrefix = \"\";\n    address public avatarPartAddress;\n    address public avatarSetAddress;\n    uint public partTypeCnt = 0x4;\n   \n    // Mapping owner address to the unique metapassport token ID\n    mapping(address => uint256) private _owned;\n\n    // Mapping metapassport bind avatars\n    mapping(uint256 => mapping(uint256 => bool)) private _bindAvatarsMapping; \n    mapping(uint256 => uint256[]) private _bindAvatarsArray; \n\n    // Mapping mpTokenId current selected bind avatar\n    // mpTokenId => (part type => part num)\n    mapping(uint256 => mapping(uint => uint)) private _selectedAvatar;\n\n    // events\n    event MetaPassportMint(address to, uint256 tokenId);\n    event BindAvatarPart(uint256 mpTokenId, uint256 avatarPartId);\n    event SetCurrentAvatarPart(uint256 mpTokenId, uint[] avatarPartIds);\n\n    constructor() ERC721(\"MetaPassport\", \"MP\") {\n        _grantRole(DEFAULT_ADMIN_ROLE, msg.sender);\n        _grantRole(PAUSER_ROLE, msg.sender);\n        _grantRole(MINTER_ROLE, msg.sender);\n        _tokenIdCounter.increment(); // tokenId start from 1\n    }\n\n    function pause() public onlyRole(PAUSER_ROLE) {\n        _pause();\n    }\n\n    function unpause() public onlyRole(PAUSER_ROLE) {\n        _unpause();\n    }\n\n    function safeMint(address to) public onlyRole(MINTER_ROLE) {\n        uint256 tokenId = _tokenIdCounter.current();\n        _tokenIdCounter.increment();\n        _safeMint(to, tokenId);\n        emit MetaPassportMint(to, tokenId);\n    }\n\n    function _beforeTokenTransfer(address from, address to, uint256 tokenId)\n        internal\n        whenNotPaused\n        override\n    {\n        super._beforeTokenTransfer(from, to, tokenId);\n    }\n\n    // The following functions are overrides required by Solidity.\n\n    function supportsInterface(bytes4 interfaceId)\n        public\n        view\n        override(ERC721, AccessControl)\n        returns (bool)\n    {\n        return super.supportsInterface(interfaceId);\n    }\n\n    // tokenURI\n\n    function _baseURI() internal view virtual override returns (string memory) {\n        return tokenURIPrefix;\n    }\n\n    function setTokenURIPrefix(string memory newTokenURIPrefix) public onlyRole(DEFAULT_ADMIN_ROLE) {\n        tokenURIPrefix = newTokenURIPrefix;\n    }\n\n    // Each address can only have one MetaPassport\n\n    function _transfer(\n        address from,\n        address to,\n        uint256 tokenId\n    ) internal virtual override {\n        require(balanceOf(to) > 0, \"MetaPassport: Each address can only have one MetaPassport\");\n        super._transfer(from, to, tokenId);\n        _owned[from] = 0x0;\n        _owned[to] = tokenId;\n    }\n\n    function _mint(address to, uint256 tokenId) internal virtual override {\n        require(balanceOf(to) <= 0, \"MetaPassport: Each address can only have one MetaPassport\");\n        super._mint(to, tokenId);\n        _owned[to] = tokenId;\n    }\n\n    function getMetaPassport(address addr) public view returns(uint256) {\n        return _owned[addr];\n    }\n\n    // MetaPassport Avatar\n\n    function setAvatarPartAddress(address newavatarPartAddress) public onlyRole(DEFAULT_ADMIN_ROLE) {\n        avatarPartAddress = newavatarPartAddress;\n    }\n\n    function setAvatarSetAddress(address newAvatarSetAddress) public onlyRole(DEFAULT_ADMIN_ROLE) {\n        avatarSetAddress = newAvatarSetAddress;\n    }\n\n    function setPartTypeCnt(uint newMax) public onlyRole(DEFAULT_ADMIN_ROLE) {\n        partTypeCnt = newMax;\n    }\n\n    function bindAvatarPart(uint256 mpTokenId, uint256 avatarPartId) public {\n        require((msg.sender == avatarSetAddress) || (msg.sender == avatarPartAddress), \"MetaPassport: only avatar contract can call this function\");\n\n        if(isBindAvatarPart(mpTokenId, avatarPartId) == false) {\n            _bindAvatarsMapping[mpTokenId][avatarPartId] = true;\n            _bindAvatarsArray[mpTokenId].push(avatarPartId);\n            emit BindAvatarPart(mpTokenId, avatarPartId);\n        }\n    }\n\n    function checkFirstBindAvatar(uint256 mpTokenId, uint[] calldata partIds) public {\n        require((msg.sender == avatarSetAddress), \"MetaPassport: only avatar contract can call this function\");\n        // if not first bind, skip\n        // type=0 is base, base is start from 1\n        if(_selectedAvatar[mpTokenId][0] > 0) { \n            return;\n        }\n        require(partIds.length == partTypeCnt, \"MetaPassport: invalid partId count\");\n        require(mpTokenId > 0, \"MetaPassport: no metapassport\");\n\n        for(uint i=0; i<partTypeCnt; i++) {\n            uint partId = partIds[i];\n            require(isBindAvatarPart(mpTokenId, partId), \"MetaPassport: part id is not bind\");\n            _selectedAvatar[mpTokenId][i] = partId;\n        }\n\n        emit SetCurrentAvatarPart(mpTokenId, partIds);\n    }\n\n    function getBindAvatarParts(uint256 mpTokenId) public view returns(uint256[] memory){\n        return _bindAvatarsArray[mpTokenId];    \n    }\n\n    function isBindAvatarPart(uint256 mpTokenId, uint256 avatarPartId) public view returns(bool) {\n        return _bindAvatarsMapping[mpTokenId][avatarPartId];\n    }\n\n    function setMyCurrentAvatar(uint[] memory partIds) public {\n        require(partIds.length == partTypeCnt, \"MetaPassport: invalid partId count\");\n        uint256 mpTokenId = getMetaPassport(msg.sender);\n        require(mpTokenId > 0, \"MetaPassport: no metapassport\");\n\n        for(uint i=0; i<partTypeCnt; i++) {\n            uint partId = partIds[i];\n            require(isBindAvatarPart(mpTokenId, partId), \"MetaPassport: part id is not bind\");\n            _selectedAvatar[mpTokenId][i] = partId;\n        }\n\n        emit SetCurrentAvatarPart(mpTokenId, partIds);\n    }\n\n    function getMyCurrentAvatar() public view returns(uint[] memory) {\n        uint256 mpTokenId = getMetaPassport(msg.sender);\n        require(mpTokenId > 0, \"MetaPassport: no metapassport\");\n        uint[] memory partIds = new uint[](partTypeCnt);\n        for(uint i=0; i<partTypeCnt; i++) {\n            uint partId = _selectedAvatar[mpTokenId][i];\n            partIds[i] = partId;\n        }\n        return partIds;\n    }\n}\n",
  "sourcePath": "D:\\Workspace\\2022-m3\\contracts\\contract-eth\\contracts\\metapassport\\MetaPassport.sol",
  "compiler": {
    "name": "solc",
    "version": "0.8.10+commit.fc410830.Emscripten.clang"
  },
  "schemaVersion": "3.4.4",
  "updatedAt": "2022-04-25T03:56:21.060Z",
  "devdoc": {
    "kind": "dev",
    "methods": {
      "approve(address,uint256)": {
        "details": "See {IERC721-approve}."
      },
      "balanceOf(address)": {
        "details": "See {IERC721-balanceOf}."
      },
      "burn(uint256)": {
        "details": "Burns `tokenId`. See {ERC721-_burn}. Requirements: - The caller must own `tokenId` or be an approved operator."
      },
      "getApproved(uint256)": {
        "details": "See {IERC721-getApproved}."
      },
      "getRoleAdmin(bytes32)": {
        "details": "Returns the admin role that controls `role`. See {grantRole} and {revokeRole}. To change a role's admin, use {_setRoleAdmin}."
      },
      "grantRole(bytes32,address)": {
        "details": "Grants `role` to `account`. If `account` had not been already granted `role`, emits a {RoleGranted} event. Requirements: - the caller must have ``role``'s admin role."
      },
      "hasRole(bytes32,address)": {
        "details": "Returns `true` if `account` has been granted `role`."
      },
      "isApprovedForAll(address,address)": {
        "details": "See {IERC721-isApprovedForAll}."
      },
      "name()": {
        "details": "See {IERC721Metadata-name}."
      },
      "ownerOf(uint256)": {
        "details": "See {IERC721-ownerOf}."
      },
      "paused()": {
        "details": "Returns true if the contract is paused, and false otherwise."
      },
      "renounceRole(bytes32,address)": {
        "details": "Revokes `role` from the calling account. Roles are often managed via {grantRole} and {revokeRole}: this function's purpose is to provide a mechanism for accounts to lose their privileges if they are compromised (such as when a trusted device is misplaced). If the calling account had been revoked `role`, emits a {RoleRevoked} event. Requirements: - the caller must be `account`."
      },
      "revokeRole(bytes32,address)": {
        "details": "Revokes `role` from `account`. If `account` had been granted `role`, emits a {RoleRevoked} event. Requirements: - the caller must have ``role``'s admin role."
      },
      "safeTransferFrom(address,address,uint256)": {
        "details": "See {IERC721-safeTransferFrom}."
      },
      "safeTransferFrom(address,address,uint256,bytes)": {
        "details": "See {IERC721-safeTransferFrom}."
      },
      "setApprovalForAll(address,bool)": {
        "details": "See {IERC721-setApprovalForAll}."
      },
      "symbol()": {
        "details": "See {IERC721Metadata-symbol}."
      },
      "tokenURI(uint256)": {
        "details": "See {IERC721Metadata-tokenURI}."
      },
      "transferFrom(address,address,uint256)": {
        "details": "See {IERC721-transferFrom}."
      }
    },
    "version": 1
  },
  "userdoc": {
    "kind": "user",
    "methods": {},
    "version": 1
  }
}