{
  "contractName": "MetaPassportMinter",
  "abi": [
    {
      "inputs": [
        {
          "internalType": "address",
          "name": "cooAddr",
          "type": "address"
        },
        {
          "internalType": "address payable",
          "name": "cfoAddr",
          "type": "address"
        }
      ],
      "stateMutability": "nonpayable",
      "type": "constructor"
    },
    {
      "anonymous": false,
      "inputs": [
        {
          "indexed": false,
          "internalType": "uint256",
          "name": "mintType",
          "type": "uint256"
        },
        {
          "indexed": false,
          "internalType": "address",
          "name": "from",
          "type": "address"
        },
        {
          "indexed": false,
          "internalType": "uint256[2]",
          "name": "params",
          "type": "uint256[2]"
        },
        {
          "indexed": false,
          "internalType": "uint256",
          "name": "orderIndex",
          "type": "uint256"
        }
      ],
      "name": "MintOrderCreated",
      "type": "event"
    },
    {
      "anonymous": false,
      "inputs": [
        {
          "indexed": false,
          "internalType": "uint256",
          "name": "orderIndex",
          "type": "uint256"
        }
      ],
      "name": "MintOrderHandled",
      "type": "event"
    },
    {
      "anonymous": false,
      "inputs": [
        {
          "indexed": false,
          "internalType": "uint256",
          "name": "round",
          "type": "uint256"
        },
        {
          "indexed": false,
          "internalType": "uint256",
          "name": "endTime",
          "type": "uint256"
        },
        {
          "indexed": false,
          "internalType": "uint256",
          "name": "totalLimit",
          "type": "uint256"
        },
        {
          "indexed": false,
          "internalType": "uint256",
          "name": "userLimit",
          "type": "uint256"
        }
      ],
      "name": "MysteryBoxRoundUpdate",
      "type": "event"
    },
    {
      "anonymous": false,
      "inputs": [
        {
          "indexed": false,
          "internalType": "uint256",
          "name": "round",
          "type": "uint256"
        },
        {
          "indexed": false,
          "internalType": "uint256",
          "name": "mpTokenId",
          "type": "uint256"
        },
        {
          "indexed": false,
          "internalType": "uint256",
          "name": "slot",
          "type": "uint256"
        },
        {
          "indexed": false,
          "internalType": "uint256",
          "name": "setId",
          "type": "uint256"
        }
      ],
      "name": "MysteryBoxSlotOpen",
      "type": "event"
    },
    {
      "anonymous": false,
      "inputs": [
        {
          "indexed": true,
          "internalType": "address",
          "name": "previousOwner",
          "type": "address"
        },
        {
          "indexed": true,
          "internalType": "address",
          "name": "newOwner",
          "type": "address"
        }
      ],
      "name": "OwnershipTransferred",
      "type": "event"
    },
    {
      "inputs": [],
      "name": "mysteryBoxCurrentRound",
      "outputs": [
        {
          "internalType": "uint256",
          "name": "round",
          "type": "uint256"
        },
        {
          "internalType": "uint256",
          "name": "endTime",
          "type": "uint256"
        },
        {
          "internalType": "uint256",
          "name": "totalLimit",
          "type": "uint256"
        },
        {
          "internalType": "uint256",
          "name": "userLimit",
          "type": "uint256"
        }
      ],
      "stateMutability": "view",
      "type": "function"
    },
    {
      "inputs": [],
      "name": "owner",
      "outputs": [
        {
          "internalType": "address",
          "name": "",
          "type": "address"
        }
      ],
      "stateMutability": "view",
      "type": "function"
    },
    {
      "inputs": [],
      "name": "renounceOwnership",
      "outputs": [],
      "stateMutability": "nonpayable",
      "type": "function"
    },
    {
      "inputs": [
        {
          "internalType": "address",
          "name": "newOwner",
          "type": "address"
        }
      ],
      "name": "transferOwnership",
      "outputs": [],
      "stateMutability": "nonpayable",
      "type": "function"
    },
    {
      "inputs": [
        {
          "internalType": "contract MetaPassport",
          "name": "mpAddr",
          "type": "address"
        },
        {
          "internalType": "contract MetaPassportAvatarPart",
          "name": "mpAvatarPartAddr",
          "type": "address"
        },
        {
          "internalType": "contract MetaPassportAvatarSet",
          "name": "mpAvatarSetAddr",
          "type": "address"
        },
        {
          "internalType": "contract MetaPassportAvatarSetConfig",
          "name": "mpAvatarSetConfigAddr",
          "type": "address"
        }
      ],
      "name": "initContracts",
      "outputs": [],
      "stateMutability": "nonpayable",
      "type": "function"
    },
    {
      "inputs": [
        {
          "internalType": "contract MetaPassportWhitelist",
          "name": "newWhitelistAddr",
          "type": "address"
        }
      ],
      "name": "setWhitelistContract",
      "outputs": [],
      "stateMutability": "nonpayable",
      "type": "function"
    },
    {
      "inputs": [],
      "name": "withdraw",
      "outputs": [],
      "stateMutability": "nonpayable",
      "type": "function"
    },
    {
      "inputs": [
        {
          "internalType": "address",
          "name": "cooAddr",
          "type": "address"
        }
      ],
      "name": "setCOO",
      "outputs": [],
      "stateMutability": "nonpayable",
      "type": "function"
    },
    {
      "inputs": [
        {
          "internalType": "address payable",
          "name": "cfoAddr",
          "type": "address"
        }
      ],
      "name": "setCFO",
      "outputs": [],
      "stateMutability": "nonpayable",
      "type": "function"
    },
    {
      "inputs": [
        {
          "internalType": "address",
          "name": "to",
          "type": "address"
        }
      ],
      "name": "mintByCOO",
      "outputs": [],
      "stateMutability": "nonpayable",
      "type": "function"
    },
    {
      "inputs": [],
      "name": "getBlockTime",
      "outputs": [
        {
          "internalType": "uint256",
          "name": "",
          "type": "uint256"
        }
      ],
      "stateMutability": "view",
      "type": "function"
    },
    {
      "inputs": [
        {
          "internalType": "uint256",
          "name": "round",
          "type": "uint256"
        },
        {
          "internalType": "uint256",
          "name": "endTime",
          "type": "uint256"
        },
        {
          "internalType": "uint256",
          "name": "totalLimit",
          "type": "uint256"
        },
        {
          "internalType": "uint256",
          "name": "userLimit",
          "type": "uint256"
        }
      ],
      "name": "setMysteryBoxRound",
      "outputs": [],
      "stateMutability": "nonpayable",
      "type": "function"
    },
    {
      "inputs": [],
      "name": "getMysteryBoxRoundEndTime",
      "outputs": [
        {
          "internalType": "uint256",
          "name": "",
          "type": "uint256"
        }
      ],
      "stateMutability": "view",
      "type": "function"
    },
    {
      "inputs": [],
      "name": "getMysteryBoxRoundInfo",
      "outputs": [
        {
          "components": [
            {
              "internalType": "uint256",
              "name": "round",
              "type": "uint256"
            },
            {
              "internalType": "uint256",
              "name": "endTime",
              "type": "uint256"
            },
            {
              "internalType": "uint256",
              "name": "totalLimit",
              "type": "uint256"
            },
            {
              "internalType": "uint256",
              "name": "userLimit",
              "type": "uint256"
            }
          ],
          "internalType": "struct MetaPassportMinter.MysteryBoxRound",
          "name": "",
          "type": "tuple"
        }
      ],
      "stateMutability": "view",
      "type": "function"
    },
    {
      "inputs": [],
      "name": "isMysteryBoxRoundOpening",
      "outputs": [
        {
          "internalType": "bool",
          "name": "",
          "type": "bool"
        }
      ],
      "stateMutability": "view",
      "type": "function"
    },
    {
      "inputs": [
        {
          "internalType": "uint256",
          "name": "mpTokenId",
          "type": "uint256"
        },
        {
          "internalType": "uint256",
          "name": "slot",
          "type": "uint256"
        }
      ],
      "name": "getSlotOpenStatus",
      "outputs": [
        {
          "internalType": "uint256",
          "name": "",
          "type": "uint256"
        }
      ],
      "stateMutability": "view",
      "type": "function"
    },
    {
      "inputs": [
        {
          "internalType": "uint8[]",
          "name": "slots",
          "type": "uint8[]"
        }
      ],
      "name": "mintMysteryBox",
      "outputs": [],
      "stateMutability": "payable",
      "type": "function"
    },
    {
      "inputs": [],
      "name": "mint1",
      "outputs": [],
      "stateMutability": "payable",
      "type": "function"
    },
    {
      "inputs": [],
      "name": "mint2",
      "outputs": [],
      "stateMutability": "payable",
      "type": "function"
    },
    {
      "inputs": [
        {
          "internalType": "uint256",
          "name": "baseId",
          "type": "uint256"
        }
      ],
      "name": "mint3",
      "outputs": [],
      "stateMutability": "payable",
      "type": "function"
    },
    {
      "inputs": [
        {
          "internalType": "uint256",
          "name": "baseId",
          "type": "uint256"
        },
        {
          "internalType": "uint256",
          "name": "series",
          "type": "uint256"
        }
      ],
      "name": "mint4",
      "outputs": [],
      "stateMutability": "payable",
      "type": "function"
    },
    {
      "inputs": [
        {
          "internalType": "uint256",
          "name": "orderIndex",
          "type": "uint256"
        }
      ],
      "name": "handleMintOrder",
      "outputs": [],
      "stateMutability": "nonpayable",
      "type": "function"
    },
    {
      "inputs": [],
      "name": "metapassport",
      "outputs": [
        {
          "internalType": "address",
          "name": "",
          "type": "address"
        }
      ],
      "stateMutability": "view",
      "type": "function"
    },
    {
      "inputs": [],
      "name": "whitelistAddr",
      "outputs": [
        {
          "internalType": "address",
          "name": "",
          "type": "address"
        }
      ],
      "stateMutability": "view",
      "type": "function"
    },
    {
      "inputs": [],
      "name": "coo",
      "outputs": [
        {
          "internalType": "address",
          "name": "",
          "type": "address"
        }
      ],
      "stateMutability": "view",
      "type": "function"
    },
    {
      "inputs": [],
      "name": "cfo",
      "outputs": [
        {
          "internalType": "address",
          "name": "",
          "type": "address"
        }
      ],
      "stateMutability": "view",
      "type": "function"
    },
    {
      "inputs": [],
      "name": "mint1Fee",
      "outputs": [
        {
          "internalType": "uint256",
          "name": "",
          "type": "uint256"
        }
      ],
      "stateMutability": "view",
      "type": "function"
    },
    {
      "inputs": [],
      "name": "mint2Fee",
      "outputs": [
        {
          "internalType": "uint256",
          "name": "",
          "type": "uint256"
        }
      ],
      "stateMutability": "view",
      "type": "function"
    },
    {
      "inputs": [],
      "name": "mint3Fee",
      "outputs": [
        {
          "internalType": "uint256",
          "name": "",
          "type": "uint256"
        }
      ],
      "stateMutability": "view",
      "type": "function"
    },
    {
      "inputs": [],
      "name": "mint4Fee",
      "outputs": [
        {
          "internalType": "uint256",
          "name": "",
          "type": "uint256"
        }
      ],
      "stateMutability": "view",
      "type": "function"
    },
    {
      "inputs": [],
      "name": "mintBoxFee",
      "outputs": [
        {
          "internalType": "uint256",
          "name": "",
          "type": "uint256"
        }
      ],
      "stateMutability": "view",
      "type": "function"
    },
    {
      "inputs": [],
      "name": "isWhitelistMode",
      "outputs": [
        {
          "internalType": "bool",
          "name": "",
          "type": "bool"
        }
      ],
      "stateMutability": "view",
      "type": "function"
    }
  ],
  "bytecode": "0x60806040523480156200001157600080fd5b5060405162004417380380620044178339818101604052810190620000379190620002bd565b620000576200004b6200014260201b60201c565b6200014a60201b60201c565b81600160006101000a81548173ffffffffffffffffffffffffffffffffffffffff021916908373ffffffffffffffffffffffffffffffffffffffff16021790555080600260006101000a81548173ffffffffffffffffffffffffffffffffffffffff021916908373ffffffffffffffffffffffffffffffffffffffff1602179055506001600260146101000a81548160ff02191690831515021790555066038d7ea4c6800060038190555066071afd498d0000600481905550660aa87bee538000600581905550660e35fa931a000060068190555066071afd498d0000600781905550505062000304565b600033905090565b60008060009054906101000a900473ffffffffffffffffffffffffffffffffffffffff169050816000806101000a81548173ffffffffffffffffffffffffffffffffffffffff021916908373ffffffffffffffffffffffffffffffffffffffff1602179055508173ffffffffffffffffffffffffffffffffffffffff168173ffffffffffffffffffffffffffffffffffffffff167f8be0079c531659141344cd1fd0a4f28419497f9722a3daafe3b4186f6b6457e060405160405180910390a35050565b600080fd5b600073ffffffffffffffffffffffffffffffffffffffff82169050919050565b6000620002408262000213565b9050919050565b620002528162000233565b81146200025e57600080fd5b50565b600081519050620002728162000247565b92915050565b6000620002858262000213565b9050919050565b620002978162000278565b8114620002a357600080fd5b50565b600081519050620002b7816200028c565b92915050565b60008060408385031215620002d757620002d66200020e565b5b6000620002e78582860162000261565b9250506020620002fa85828601620002a6565b9150509250929050565b61410380620003146000396000f3fe6080604052600436106101e35760003560e01c80637b1c5bc311610102578063b8c0becb11610095578063ca8a1e6411610064578063ca8a1e6414610610578063eb66527b14610639578063f29c21df14610664578063f2fde38b1461068d576101e3565b8063b8c0becb14610561578063bf9624011461058c578063c3a875be146105ba578063c4f3e6b3146105e5576101e3565b80639e2e8778116100d15780639e2e8778146104b5578063a2677722146104e0578063a2d78f6b1461050b578063a3cb4d8614610536576101e3565b80637b1c5bc31461042a57806385d1ef631461045557806387ceff091461045f5780638da5cb5b1461048a576101e3565b80633ccfd60b1161017a5780635d9023ba116101495780635d9023ba1461039157806367682b40146103ba578063715018a6146103d657806377c7da5b146103ed576101e3565b80633ccfd60b146102fb57806348a0baf8146103125780634e0a33791461033d578063577d7bf214610366576101e3565b80631ed20347116101b65780631ed203471461026257806320eca6101461028d57806327268120146102b65780632ba73c15146102d2576101e3565b8063044b4b5d146101e857806307cdee49146101f257806312f261401461021d5780631913df1d14610246575b600080fd5b6101f06106b6565b005b3480156101fe57600080fd5b506102076108e9565b6040516102149190612d8d565b60405180910390f35b34801561022957600080fd5b50610244600480360381019061023f9190612dfa565b610913565b005b610260600480360381019061025b9190612e5d565b610a5f565b005b34801561026e57600080fd5b50610277610d30565b6040516102849190612d8d565b60405180910390f35b34801561029957600080fd5b506102b460048036038101906102af9190612e8a565b610d5a565b005b6102d060048036038101906102cb9190612ef1565b610e60565b005b3480156102de57600080fd5b506102f960048036038101906102f49190612f5d565b611133565b005b34801561030757600080fd5b506103106111f3565b005b34801561031e57600080fd5b506103276112d3565b6040516103349190612d8d565b60405180910390f35b34801561034957600080fd5b50610364600480360381019061035f9190612fc8565b6112fd565b005b34801561037257600080fd5b5061037b6113bd565b6040516103889190613004565b60405180910390f35b34801561039d57600080fd5b506103b860048036038101906103b39190613117565b6113ca565b005b6103d460048036038101906103cf9190613310565b6114d4565b005b3480156103e257600080fd5b506103eb6117a2565b005b3480156103f957600080fd5b50610414600480360381019061040f9190612ef1565b61182a565b6040516104219190613004565b60405180910390f35b34801561043657600080fd5b5061043f61186f565b60405161044c9190613004565b60405180910390f35b61045d611879565b005b34801561046b57600080fd5b50610474611aac565b6040516104819190613004565b60405180910390f35b34801561049657600080fd5b5061049f611ab4565b6040516104ac9190612d8d565b60405180910390f35b3480156104c157600080fd5b506104ca611add565b6040516104d791906133bd565b60405180910390f35b3480156104ec57600080fd5b506104f5611b1f565b6040516105029190613004565b60405180910390f35b34801561051757600080fd5b50610520611b29565b60405161052d9190613004565b60405180910390f35b34801561054257600080fd5b5061054b611b33565b6040516105589190612d8d565b60405180910390f35b34801561056d57600080fd5b50610576611b5d565b60405161058391906133f3565b60405180910390f35b34801561059857600080fd5b506105a1611b7f565b6040516105b1949392919061340e565b60405180910390f35b3480156105c657600080fd5b506105cf611b9d565b6040516105dc91906133f3565b60405180910390f35b3480156105f157600080fd5b506105fa611bb4565b6040516106079190613004565b60405180910390f35b34801561061c57600080fd5b5061063760048036038101906106329190612f5d565b611bbe565b005b34801561064557600080fd5b5061064e611cc3565b60405161065b9190613004565b60405180910390f35b34801561067057600080fd5b5061068b60048036038101906106869190612e5d565b611ccd565b005b34801561069957600080fd5b506106b460048036038101906106af9190612f5d565b61208d565b005b600015156106c2611b9d565b151514806107685750600c60009054906101000a900473ffffffffffffffffffffffffffffffffffffffff1673ffffffffffffffffffffffffffffffffffffffff16633af32abf336040518263ffffffff1660e01b81526004016107269190612d8d565b602060405180830381865afa158015610743573d6000803e3d6000fd5b505050506040513d601f19601f82011682018060405250810190610767919061347f565b5b6107a7576040517f08c379a000000000000000000000000000000000000000000000000000000000815260040161079e9061352f565b60405180910390fd5b6000600860009054906101000a900473ffffffffffffffffffffffffffffffffffffffff1673ffffffffffffffffffffffffffffffffffffffff166370a08231336040518263ffffffff1660e01b81526004016108049190612d8d565b602060405180830381865afa158015610821573d6000803e3d6000fd5b505050506040513d601f19601f820116820180604052508101906108459190613564565b14610885576040517f08c379a000000000000000000000000000000000000000000000000000000000815260040161087c90613603565b60405180910390fd5b60035434146108c9576040517f08c379a00000000000000000000000000000000000000000000000000000000081526004016108c090613695565b60405180910390fd5b6108d233612185565b6108da612c97565b6108e660013383612273565b50565b6000600160009054906101000a900473ffffffffffffffffffffffffffffffffffffffff16905090565b3373ffffffffffffffffffffffffffffffffffffffff166109326108e9565b73ffffffffffffffffffffffffffffffffffffffff1614610988576040517f08c379a000000000000000000000000000000000000000000000000000000000815260040161097f90613727565b60405180910390fd5b80600c60006101000a81548173ffffffffffffffffffffffffffffffffffffffff021916908373ffffffffffffffffffffffffffffffffffffffff160217905550600073ffffffffffffffffffffffffffffffffffffffff16600c60009054906101000a900473ffffffffffffffffffffffffffffffffffffffff1673ffffffffffffffffffffffffffffffffffffffff161415610a40576000600260146101000a81548160ff021916908315150217905550610a5c565b6001600260146101000a81548160ff0219169083151502179055505b50565b60001515610a6b611b9d565b15151480610b115750600c60009054906101000a900473ffffffffffffffffffffffffffffffffffffffff1673ffffffffffffffffffffffffffffffffffffffff16633af32abf336040518263ffffffff1660e01b8152600401610acf9190612d8d565b602060405180830381865afa158015610aec573d6000803e3d6000fd5b505050506040513d601f19601f82011682018060405250810190610b10919061347f565b5b610b50576040517f08c379a0000000000000000000000000000000000000000000000000000000008152600401610b479061352f565b60405180910390fd5b6000600860009054906101000a900473ffffffffffffffffffffffffffffffffffffffff1673ffffffffffffffffffffffffffffffffffffffff166370a08231336040518263ffffffff1660e01b8152600401610bad9190612d8d565b602060405180830381865afa158015610bca573d6000803e3d6000fd5b505050506040513d601f19601f82011682018060405250810190610bee9190613564565b14610c2e576040517f08c379a0000000000000000000000000000000000000000000000000000000008152600401610c2590613603565b60405180910390fd5b6005543414610c72576040517f08c379a0000000000000000000000000000000000000000000000000000000008152600401610c6990613695565b60405180910390fd5b610c7b33612185565b600b60009054906101000a900473ffffffffffffffffffffffffffffffffffffffff1673ffffffffffffffffffffffffffffffffffffffff16634a206dee826040518263ffffffff1660e01b8152600401610cd69190613004565b60006040518083038186803b158015610cee57600080fd5b505afa158015610d02573d6000803e3d6000fd5b505050506000604051806040016040528083815260200160008152509050610d2c60033383612273565b5050565b6000600260009054906101000a900473ffffffffffffffffffffffffffffffffffffffff16905090565b3373ffffffffffffffffffffffffffffffffffffffff16610d796108e9565b73ffffffffffffffffffffffffffffffffffffffff1614610dcf576040517f08c379a0000000000000000000000000000000000000000000000000000000008152600401610dc690613727565b60405180910390fd5b604051806080016040528085815260200184815260200183815260200182815250600e600082015181600001556020820151816001015560408201518160020155606082015181600301559050507f864da174aafa8adcc80f8ec9376d8378d27761b2b9bd65ce3b163d70d8b1966084848484604051610e52949392919061340e565b60405180910390a150505050565b60001515610e6c611b9d565b15151480610f125750600c60009054906101000a900473ffffffffffffffffffffffffffffffffffffffff1673ffffffffffffffffffffffffffffffffffffffff16633af32abf336040518263ffffffff1660e01b8152600401610ed09190612d8d565b602060405180830381865afa158015610eed573d6000803e3d6000fd5b505050506040513d601f19601f82011682018060405250810190610f11919061347f565b5b610f51576040517f08c379a0000000000000000000000000000000000000000000000000000000008152600401610f489061352f565b60405180910390fd5b6000600860009054906101000a900473ffffffffffffffffffffffffffffffffffffffff1673ffffffffffffffffffffffffffffffffffffffff166370a08231336040518263ffffffff1660e01b8152600401610fae9190612d8d565b602060405180830381865afa158015610fcb573d6000803e3d6000fd5b505050506040513d601f19601f82011682018060405250810190610fef9190613564565b1461102f576040517f08c379a000000000000000000000000000000000000000000000000000000000815260040161102690613603565b60405180910390fd5b6006543414611073576040517f08c379a000000000000000000000000000000000000000000000000000000000815260040161106a90613695565b60405180910390fd5b61107c33612185565b600b60009054906101000a900473ffffffffffffffffffffffffffffffffffffffff1673ffffffffffffffffffffffffffffffffffffffff1663e911b8c783836040518363ffffffff1660e01b81526004016110d9929190613747565b60006040518083038186803b1580156110f157600080fd5b505afa158015611105573d6000803e3d6000fd5b505050506000604051806040016040528084815260200183815250905061112e60043383612273565b505050565b61113b6123a3565b73ffffffffffffffffffffffffffffffffffffffff16611159611ab4565b73ffffffffffffffffffffffffffffffffffffffff16146111af576040517f08c379a00000000000000000000000000000000000000000000000000000000081526004016111a6906137bc565b60405180910390fd5b80600160006101000a81548173ffffffffffffffffffffffffffffffffffffffff021916908373ffffffffffffffffffffffffffffffffffffffff16021790555050565b3373ffffffffffffffffffffffffffffffffffffffff16611212610d30565b73ffffffffffffffffffffffffffffffffffffffff1614611268576040517f08c379a000000000000000000000000000000000000000000000000000000000815260040161125f9061384e565b60405180910390fd5b600260009054906101000a900473ffffffffffffffffffffffffffffffffffffffff1673ffffffffffffffffffffffffffffffffffffffff166108fc479081150290604051600060405180830381858888f193505050501580156112d0573d6000803e3d6000fd5b50565b6000600c60009054906101000a900473ffffffffffffffffffffffffffffffffffffffff16905090565b6113056123a3565b73ffffffffffffffffffffffffffffffffffffffff16611323611ab4565b73ffffffffffffffffffffffffffffffffffffffff1614611379576040517f08c379a0000000000000000000000000000000000000000000000000000000008152600401611370906137bc565b60405180910390fd5b80600260006101000a81548173ffffffffffffffffffffffffffffffffffffffff021916908373ffffffffffffffffffffffffffffffffffffffff16021790555050565b6000600e60010154905090565b83600860006101000a81548173ffffffffffffffffffffffffffffffffffffffff021916908373ffffffffffffffffffffffffffffffffffffffff16021790555082600960006101000a81548173ffffffffffffffffffffffffffffffffffffffff021916908373ffffffffffffffffffffffffffffffffffffffff16021790555081600a60006101000a81548173ffffffffffffffffffffffffffffffffffffffff021916908373ffffffffffffffffffffffffffffffffffffffff16021790555080600b60006101000a81548173ffffffffffffffffffffffffffffffffffffffff021916908373ffffffffffffffffffffffffffffffffffffffff16021790555050505050565b6114dc611b5d565b61151b576040517f08c379a0000000000000000000000000000000000000000000000000000000008152600401611512906138e0565b60405180910390fd5b600e60030154815110611563576040517f08c379a000000000000000000000000000000000000000000000000000000000815260040161155a90613972565b60405180910390fd5b805160075461157291906139c1565b34146115b3576040517f08c379a00000000000000000000000000000000000000000000000000000000081526004016115aa90613695565b60405180910390fd5b6000600860009054906101000a900473ffffffffffffffffffffffffffffffffffffffff1673ffffffffffffffffffffffffffffffffffffffff16636840f2db336040518263ffffffff1660e01b81526004016116109190612d8d565b602060405180830381865afa15801561162d573d6000803e3d6000fd5b505050506040513d601f19601f820116820180604052508101906116519190613564565b905060008111611696576040517f08c379a000000000000000000000000000000000000000000000000000000000815260040161168d90613a8d565b60405180910390fd5b60005b825181101561179d5760008382815181106116b7576116b6613aad565b5b602002602001015160ff169050600e60030154811061170b576040517f08c379a000000000000000000000000000000000000000000000000000000000815260040161170290613b4e565b60405180910390fd5b6000611717848361182a565b14611757576040517f08c379a000000000000000000000000000000000000000000000000000000000815260040161174e90613be0565b60405180910390fd5b611763838260016123ab565b60006040518060400160405280838152602001858152509050611788600a3383612273565b5050808061179590613c00565b915050611699565b505050565b6117aa6123a3565b73ffffffffffffffffffffffffffffffffffffffff166117c8611ab4565b73ffffffffffffffffffffffffffffffffffffffff161461181e576040517f08c379a0000000000000000000000000000000000000000000000000000000008152600401611815906137bc565b60405180910390fd5b61182860006123ef565b565b600060126000600e6000015481526020019081526020016000206000848152602001908152602001600020600083815260200190815260200160002054905092915050565b6000600554905090565b60001515611885611b9d565b1515148061192b5750600c60009054906101000a900473ffffffffffffffffffffffffffffffffffffffff1673ffffffffffffffffffffffffffffffffffffffff16633af32abf336040518263ffffffff1660e01b81526004016118e99190612d8d565b602060405180830381865afa158015611906573d6000803e3d6000fd5b505050506040513d601f19601f8201168201806040525081019061192a919061347f565b5b61196a576040517f08c379a00000000000000000000000000000000000000000000000000000000081526004016119619061352f565b60405180910390fd5b6000600860009054906101000a900473ffffffffffffffffffffffffffffffffffffffff1673ffffffffffffffffffffffffffffffffffffffff166370a08231336040518263ffffffff1660e01b81526004016119c79190612d8d565b602060405180830381865afa1580156119e4573d6000803e3d6000fd5b505050506040513d601f19601f82011682018060405250810190611a089190613564565b14611a48576040517f08c379a0000000000000000000000000000000000000000000000000000000008152600401611a3f90613603565b60405180910390fd5b6004543414611a8c576040517f08c379a0000000000000000000000000000000000000000000000000000000008152600401611a8390613695565b60405180910390fd5b611a9533612185565b611a9d612c97565b611aa960023383612273565b50565b600042905090565b60008060009054906101000a900473ffffffffffffffffffffffffffffffffffffffff16905090565b611ae5612cb9565b600e604051806080016040529081600082015481526020016001820154815260200160028201548152602001600382015481525050905090565b6000600454905090565b6000600654905090565b6000600860009054906101000a900473ffffffffffffffffffffffffffffffffffffffff16905090565b600080611b686113bd565b9050600081118015611b7957508042105b91505090565b600e8060000154908060010154908060020154908060030154905084565b6000600260149054906101000a900460ff16905090565b6000600754905090565b3373ffffffffffffffffffffffffffffffffffffffff16611bdd6108e9565b73ffffffffffffffffffffffffffffffffffffffff1614611c33576040517f08c379a0000000000000000000000000000000000000000000000000000000008152600401611c2a90613727565b60405180910390fd5b600860009054906101000a900473ffffffffffffffffffffffffffffffffffffffff1673ffffffffffffffffffffffffffffffffffffffff166340d097c3826040518263ffffffff1660e01b8152600401611c8e9190612d8d565b600060405180830381600087803b158015611ca857600080fd5b505af1158015611cbc573d6000803e3d6000fd5b5050505050565b6000600354905090565b3373ffffffffffffffffffffffffffffffffffffffff16611cec6108e9565b73ffffffffffffffffffffffffffffffffffffffff1614611d42576040517f08c379a0000000000000000000000000000000000000000000000000000000008152600401611d3990613727565b60405180910390fd5b80600d600183611d529190613c49565b81548110611d6357611d62613aad565b5b90600052602060002090600502016004015414611db5576040517f08c379a0000000000000000000000000000000000000000000000000000000008152600401611dac90613cef565b60405180910390fd5b6000600d600183611dc69190613c49565b81548110611dd757611dd6613aad565b5b9060005260206000209060050201604051806080016040529081600082015481526020016001820160009054906101000a900473ffffffffffffffffffffffffffffffffffffffff1673ffffffffffffffffffffffffffffffffffffffff1673ffffffffffffffffffffffffffffffffffffffff16815260200160028201600280602002604051908101604052809291908260028015611e8c576020028201915b815481526020019060010190808311611e78575b505050505081526020016004820154815250509050600a81600001511415611efb57611ef681602001518260400151600060028110611ece57611ecd613aad565b5b60200201518360400151600160028110611eeb57611eea613aad565b5b6020020151856124b3565b611fda565b600181600001511415611f1a57611f158160200151612691565b611fd9565b600281600001511415611f3a57611f35816020015183612721565b611fd8565b600381600001511415611f7757611f7281602001518260400151600060028110611f6757611f66613aad565b5b6020020151846128f0565b611fd7565b600481600001511415611fd157611fcc81602001518260400151600060028110611fa457611fa3613aad565b5b60200201518360400151600160028110611fc157611fc0613aad565b5b602002015185612ac2565b611fd6565b600080fd5b5b5b5b5b600d600183611fe99190613c49565b81548110611ffa57611ff9613aad565b5b90600052602060002090600502016000808201600090556001820160006101000a81549073ffffffffffffffffffffffffffffffffffffffff02191690556002820160006120489190612ce1565b600482016000905550507fc1c93dea9e9a2e377eaa03bf47031385e3a0b94b4fbcd2ccbdc9a2850656af89826040516120819190613004565b60405180910390a15050565b6120956123a3565b73ffffffffffffffffffffffffffffffffffffffff166120b3611ab4565b73ffffffffffffffffffffffffffffffffffffffff1614612109576040517f08c379a0000000000000000000000000000000000000000000000000000000008152600401612100906137bc565b60405180910390fd5b600073ffffffffffffffffffffffffffffffffffffffff168173ffffffffffffffffffffffffffffffffffffffff161415612179576040517f08c379a000000000000000000000000000000000000000000000000000000000815260040161217090613d81565b60405180910390fd5b612182816123ef565b50565b60001515601360008373ffffffffffffffffffffffffffffffffffffffff1673ffffffffffffffffffffffffffffffffffffffff16815260200190815260200160002060009054906101000a900460ff16151514612218576040517f08c379a000000000000000000000000000000000000000000000000000000000815260040161220f90613e13565b60405180910390fd5b6001601360008373ffffffffffffffffffffffffffffffffffffffff1673ffffffffffffffffffffffffffffffffffffffff16815260200190815260200160002060006101000a81548160ff02191690831515021790555050565b60006001600d805490506122879190613e33565b9050600d60405180608001604052808681526020018573ffffffffffffffffffffffffffffffffffffffff1681526020018481526020018381525090806001815401808255809150506001900390600052602060002090600502016000909190919091506000820151816000015560208201518160010160006101000a81548173ffffffffffffffffffffffffffffffffffffffff021916908373ffffffffffffffffffffffffffffffffffffffff160217905550604082015181600201906002612353929190612cef565b506060820151816004015550507fb6f32d15449d281e2726feb00e753b9bad557aa6fea4cb5aea46a6459a0f93e1848484846040516123959493929190613f25565b60405180910390a150505050565b600033905090565b8060126000600e6000015481526020019081526020016000206000858152602001908152602001600020600084815260200190815260200160002081905550505050565b60008060009054906101000a900473ffffffffffffffffffffffffffffffffffffffff169050816000806101000a81548173ffffffffffffffffffffffffffffffffffffffff021916908373ffffffffffffffffffffffffffffffffffffffff1602179055508173ffffffffffffffffffffffffffffffffffffffff168173ffffffffffffffffffffffffffffffffffffffff167f8be0079c531659141344cd1fd0a4f28419497f9722a3daafe3b4186f6b6457e060405160405180910390a35050565b60016124bf838561182a565b146124ff576040517f08c379a00000000000000000000000000000000000000000000000000000000081526004016124f690613fdc565b60405180910390fd5b61250b828460026123ab565b6000600b60009054906101000a900473ffffffffffffffffffffffffffffffffffffffff1673ffffffffffffffffffffffffffffffffffffffff166379e492c9836040518263ffffffff1660e01b81526004016125689190613004565b602060405180830381865afa158015612585573d6000803e3d6000fd5b505050506040513d601f19601f820116820180604052508101906125a99190614040565b6bffffffffffffffffffffffff169050600a60009054906101000a900473ffffffffffffffffffffffffffffffffffffffff1673ffffffffffffffffffffffffffffffffffffffff1663a144819486836040518363ffffffff1660e01b815260040161261692919061406d565b600060405180830381600087803b15801561263057600080fd5b505af1158015612644573d6000803e3d6000fd5b505050507fe4fd8c4934b6296738a63d48cd82453230fff2114ea6dc11dbb278c8bea2f961600e60000154848684604051612682949392919061340e565b60405180910390a15050505050565b600860009054906101000a900473ffffffffffffffffffffffffffffffffffffffff1673ffffffffffffffffffffffffffffffffffffffff166340d097c3826040518263ffffffff1660e01b81526004016126ec9190612d8d565b600060405180830381600087803b15801561270657600080fd5b505af115801561271a573d6000803e3d6000fd5b5050505050565b600860009054906101000a900473ffffffffffffffffffffffffffffffffffffffff1673ffffffffffffffffffffffffffffffffffffffff166340d097c3836040518263ffffffff1660e01b815260040161277c9190612d8d565b600060405180830381600087803b15801561279657600080fd5b505af11580156127aa573d6000803e3d6000fd5b505050506000600b60009054906101000a900473ffffffffffffffffffffffffffffffffffffffff1673ffffffffffffffffffffffffffffffffffffffff166379e492c9836040518263ffffffff1660e01b815260040161280b9190613004565b602060405180830381865afa158015612828573d6000803e3d6000fd5b505050506040513d601f19601f8201168201806040525081019061284c9190614040565b6bffffffffffffffffffffffff169050600a60009054906101000a900473ffffffffffffffffffffffffffffffffffffffff1673ffffffffffffffffffffffffffffffffffffffff1663a144819484836040518363ffffffff1660e01b81526004016128b992919061406d565b600060405180830381600087803b1580156128d357600080fd5b505af11580156128e7573d6000803e3d6000fd5b50505050505050565b600860009054906101000a900473ffffffffffffffffffffffffffffffffffffffff1673ffffffffffffffffffffffffffffffffffffffff166340d097c3846040518263ffffffff1660e01b815260040161294b9190612d8d565b600060405180830381600087803b15801561296557600080fd5b505af1158015612979573d6000803e3d6000fd5b505050506000600b60009054906101000a900473ffffffffffffffffffffffffffffffffffffffff1673ffffffffffffffffffffffffffffffffffffffff16636cbb861183856040518363ffffffff1660e01b81526004016129dc929190613747565b602060405180830381865afa1580156129f9573d6000803e3d6000fd5b505050506040513d601f19601f82011682018060405250810190612a1d9190614040565b6bffffffffffffffffffffffff169050600a60009054906101000a900473ffffffffffffffffffffffffffffffffffffffff1673ffffffffffffffffffffffffffffffffffffffff1663a144819485836040518363ffffffff1660e01b8152600401612a8a92919061406d565b600060405180830381600087803b158015612aa457600080fd5b505af1158015612ab8573d6000803e3d6000fd5b5050505050505050565b600860009054906101000a900473ffffffffffffffffffffffffffffffffffffffff1673ffffffffffffffffffffffffffffffffffffffff166340d097c3856040518263ffffffff1660e01b8152600401612b1d9190612d8d565b600060405180830381600087803b158015612b3757600080fd5b505af1158015612b4b573d6000803e3d6000fd5b505050506000600b60009054906101000a900473ffffffffffffffffffffffffffffffffffffffff1673ffffffffffffffffffffffffffffffffffffffff1663d150c9ba8386866040518463ffffffff1660e01b8152600401612bb093929190614096565b602060405180830381865afa158015612bcd573d6000803e3d6000fd5b505050506040513d601f19601f82011682018060405250810190612bf19190614040565b6bffffffffffffffffffffffff169050600a60009054906101000a900473ffffffffffffffffffffffffffffffffffffffff1673ffffffffffffffffffffffffffffffffffffffff1663a144819486836040518363ffffffff1660e01b8152600401612c5e92919061406d565b600060405180830381600087803b158015612c7857600080fd5b505af1158015612c8c573d6000803e3d6000fd5b505050505050505050565b6040518060400160405280600290602082028036833780820191505090505090565b6040518060800160405280600081526020016000815260200160008152602001600081525090565b506000815560010160009055565b8260028101928215612d1e579160200282015b82811115612d1d578251825591602001919060010190612d02565b5b509050612d2b9190612d2f565b5090565b5b80821115612d48576000816000905550600101612d30565b5090565b600073ffffffffffffffffffffffffffffffffffffffff82169050919050565b6000612d7782612d4c565b9050919050565b612d8781612d6c565b82525050565b6000602082019050612da26000830184612d7e565b92915050565b6000604051905090565b600080fd5b600080fd5b6000612dc782612d6c565b9050919050565b612dd781612dbc565b8114612de257600080fd5b50565b600081359050612df481612dce565b92915050565b600060208284031215612e1057612e0f612db2565b5b6000612e1e84828501612de5565b91505092915050565b6000819050919050565b612e3a81612e27565b8114612e4557600080fd5b50565b600081359050612e5781612e31565b92915050565b600060208284031215612e7357612e72612db2565b5b6000612e8184828501612e48565b91505092915050565b60008060008060808587031215612ea457612ea3612db2565b5b6000612eb287828801612e48565b9450506020612ec387828801612e48565b9350506040612ed487828801612e48565b9250506060612ee587828801612e48565b91505092959194509250565b60008060408385031215612f0857612f07612db2565b5b6000612f1685828601612e48565b9250506020612f2785828601612e48565b9150509250929050565b612f3a81612d6c565b8114612f4557600080fd5b50565b600081359050612f5781612f31565b92915050565b600060208284031215612f7357612f72612db2565b5b6000612f8184828501612f48565b91505092915050565b6000612f9582612d4c565b9050919050565b612fa581612f8a565b8114612fb057600080fd5b50565b600081359050612fc281612f9c565b92915050565b600060208284031215612fde57612fdd612db2565b5b6000612fec84828501612fb3565b91505092915050565b612ffe81612e27565b82525050565b60006020820190506130196000830184612ff5565b92915050565b600061302a82612d6c565b9050919050565b61303a8161301f565b811461304557600080fd5b50565b60008135905061305781613031565b92915050565b600061306882612d6c565b9050919050565b6130788161305d565b811461308357600080fd5b50565b6000813590506130958161306f565b92915050565b60006130a682612d6c565b9050919050565b6130b68161309b565b81146130c157600080fd5b50565b6000813590506130d3816130ad565b92915050565b60006130e482612d6c565b9050919050565b6130f4816130d9565b81146130ff57600080fd5b50565b600081359050613111816130eb565b92915050565b6000806000806080858703121561313157613130612db2565b5b600061313f87828801613048565b945050602061315087828801613086565b9350506040613161878288016130c4565b925050606061317287828801613102565b91505092959194509250565b600080fd5b6000601f19601f8301169050919050565b7f4e487b7100000000000000000000000000000000000000000000000000000000600052604160045260246000fd5b6131cc82613183565b810181811067ffffffffffffffff821117156131eb576131ea613194565b5b80604052505050565b60006131fe612da8565b905061320a82826131c3565b919050565b600067ffffffffffffffff82111561322a57613229613194565b5b602082029050602081019050919050565b600080fd5b600060ff82169050919050565b61325681613240565b811461326157600080fd5b50565b6000813590506132738161324d565b92915050565b600061328c6132878461320f565b6131f4565b905080838252602082019050602084028301858111156132af576132ae61323b565b5b835b818110156132d857806132c48882613264565b8452602084019350506020810190506132b1565b5050509392505050565b600082601f8301126132f7576132f661317e565b5b8135613307848260208601613279565b91505092915050565b60006020828403121561332657613325612db2565b5b600082013567ffffffffffffffff81111561334457613343612db7565b5b613350848285016132e2565b91505092915050565b61336281612e27565b82525050565b60808201600082015161337e6000850182613359565b5060208201516133916020850182613359565b5060408201516133a46040850182613359565b5060608201516133b76060850182613359565b50505050565b60006080820190506133d26000830184613368565b92915050565b60008115159050919050565b6133ed816133d8565b82525050565b600060208201905061340860008301846133e4565b92915050565b60006080820190506134236000830187612ff5565b6134306020830186612ff5565b61343d6040830185612ff5565b61344a6060830184612ff5565b95945050505050565b61345c816133d8565b811461346757600080fd5b50565b60008151905061347981613453565b92915050565b60006020828403121561349557613494612db2565b5b60006134a38482850161346a565b91505092915050565b600082825260208201905092915050565b7f4d65746150617373706f72744d696e7465723a2063616c6c6572206973206e6f60008201527f7420696e207468652077686974656c6973740000000000000000000000000000602082015250565b60006135196032836134ac565b9150613524826134bd565b604082019050919050565b600060208201905081810360008301526135488161350c565b9050919050565b60008151905061355e81612e31565b92915050565b60006020828403121561357a57613579612db2565b5b60006135888482850161354f565b91505092915050565b7f4d65746150617373706f72744d696e7465723a2063616c6c65722063616e6e6f60008201527f74206f776e6564206d65746170617373706f7274000000000000000000000000602082015250565b60006135ed6034836134ac565b91506135f882613591565b604082019050919050565b6000602082019050818103600083015261361c816135e0565b9050919050565b7f4d65746150617373706f72744d696e7465723a20696e76616c6964206d696e7460008201527f2066656500000000000000000000000000000000000000000000000000000000602082015250565b600061367f6024836134ac565b915061368a82613623565b604082019050919050565b600060208201905081810360008301526136ae81613672565b9050919050565b7f4d65746150617373706f72744d696e7465723a2063616c6c6572206973206e6f60008201527f742074686520636f6f0000000000000000000000000000000000000000000000602082015250565b60006137116029836134ac565b915061371c826136b5565b604082019050919050565b6000602082019050818103600083015261374081613704565b9050919050565b600060408201905061375c6000830185612ff5565b6137696020830184612ff5565b9392505050565b7f4f776e61626c653a2063616c6c6572206973206e6f7420746865206f776e6572600082015250565b60006137a66020836134ac565b91506137b182613770565b602082019050919050565b600060208201905081810360008301526137d581613799565b9050919050565b7f4d65746150617373706f72744d696e7465723a2063616c6c6572206973206e6f60008201527f74207468652063666f0000000000000000000000000000000000000000000000602082015250565b60006138386029836134ac565b9150613843826137dc565b604082019050919050565b600060208201905081810360008301526138678161382b565b9050919050565b7f4d65746150617373706f72744d696e7465723a206d79737465727920626f782060008201527f6973206e6f74206f70656e696e67000000000000000000000000000000000000602082015250565b60006138ca602e836134ac565b91506138d58261386e565b604082019050919050565b600060208201905081810360008301526138f9816138bd565b9050919050565b7f4d65746150617373706f72744d696e7465723a206d79737465727920626f782060008201527f736c6f747320636f756e74203e2075736572206c696d69740000000000000000602082015250565b600061395c6038836134ac565b915061396782613900565b604082019050919050565b6000602082019050818103600083015261398b8161394f565b9050919050565b7f4e487b7100000000000000000000000000000000000000000000000000000000600052601160045260246000fd5b60006139cc82612e27565b91506139d783612e27565b9250817fffffffffffffffffffffffffffffffffffffffffffffffffffffffffffffffff0483118215151615613a1057613a0f613992565b5b828202905092915050565b7f4d65746150617373706f72744d696e7465723a2073686f756c64206f776e206d60008201527f65746170617373706f7274206669727374000000000000000000000000000000602082015250565b6000613a776031836134ac565b9150613a8282613a1b565b604082019050919050565b60006020820190508181036000830152613aa681613a6a565b9050919050565b7f4e487b7100000000000000000000000000000000000000000000000000000000600052603260045260246000fd5b7f4d65746150617373706f72744d696e7465723a20696e76616c6964206d79737460008201527f65727920626f7820736c6f740000000000000000000000000000000000000000602082015250565b6000613b38602c836134ac565b9150613b4382613adc565b604082019050919050565b60006020820190508181036000830152613b6781613b2b565b9050919050565b7f4d65746150617373706f72744d696e7465723a20736c6f74206973206f70656e60008201527f6564000000000000000000000000000000000000000000000000000000000000602082015250565b6000613bca6022836134ac565b9150613bd582613b6e565b604082019050919050565b60006020820190508181036000830152613bf981613bbd565b9050919050565b6000613c0b82612e27565b91507fffffffffffffffffffffffffffffffffffffffffffffffffffffffffffffffff821415613c3e57613c3d613992565b5b600182019050919050565b6000613c5482612e27565b9150613c5f83612e27565b925082821015613c7257613c71613992565b5b828203905092915050565b7f4d65746150617373706f72744d696e7465723a20696e76616c6964206f72646560008201527f7220696e64657800000000000000000000000000000000000000000000000000602082015250565b6000613cd96027836134ac565b9150613ce482613c7d565b604082019050919050565b60006020820190508181036000830152613d0881613ccc565b9050919050565b7f4f776e61626c653a206e6577206f776e657220697320746865207a65726f206160008201527f6464726573730000000000000000000000000000000000000000000000000000602082015250565b6000613d6b6026836134ac565b9150613d7682613d0f565b604082019050919050565b60006020820190508181036000830152613d9a81613d5e565b9050919050565b7f4d65746150617373706f72744d696e7465723a206d696e74657220686173206360008201527f726561746564206d696e74317e34206f72646572000000000000000000000000602082015250565b6000613dfd6034836134ac565b9150613e0882613da1565b604082019050919050565b60006020820190508181036000830152613e2c81613df0565b9050919050565b6000613e3e82612e27565b9150613e4983612e27565b9250827fffffffffffffffffffffffffffffffffffffffffffffffffffffffffffffffff03821115613e7e57613e7d613992565b5b828201905092915050565b600060029050919050565b600081905092915050565b6000819050919050565b6000613eb58383613359565b60208301905092915050565b6000602082019050919050565b613ed781613e89565b613ee18184613e94565b9250613eec82613e9f565b8060005b83811015613f1d578151613f048782613ea9565b9650613f0f83613ec1565b925050600181019050613ef0565b505050505050565b600060a082019050613f3a6000830187612ff5565b613f476020830186612d7e565b613f546040830185613ece565b613f616080830184612ff5565b95945050505050565b7f4d65746150617373706f72744d696e7465723a20696e76616c696420736c6f7460008201527f2073746174757300000000000000000000000000000000000000000000000000602082015250565b6000613fc66027836134ac565b9150613fd182613f6a565b604082019050919050565b60006020820190508181036000830152613ff581613fb9565b9050919050565b60006bffffffffffffffffffffffff82169050919050565b61401d81613ffc565b811461402857600080fd5b50565b60008151905061403a81614014565b92915050565b60006020828403121561405657614055612db2565b5b60006140648482850161402b565b91505092915050565b60006040820190506140826000830185612d7e565b61408f6020830184612ff5565b9392505050565b60006060820190506140ab6000830186612ff5565b6140b86020830185612ff5565b6140c56040830184612ff5565b94935050505056fea264697066735822122099f040006a24c3caeaf935f49c5f1fecbe3aae89901c0042543b497ef47bfd8664736f6c634300080a0033",
  "immutableReferences": {},
  "source": "// SPDX-License-Identifier: MIT\r\npragma solidity ^0.8.4;\r\n\r\nimport \"@openzeppelin/contracts/access/Ownable.sol\";\r\nimport \"@openzeppelin/contracts/utils/Arrays.sol\";\r\nimport \"./MetaPassport.sol\";\r\nimport \"./MetaPassportAvatarPart.sol\";\r\nimport \"./MetaPassportAvatarSet.sol\";\r\nimport \"./MetaPassportAvatarSetConfig.sol\";\r\nimport \"./MetaPassportWhitelist.sol\";\r\n\r\ncontract MetaPassportMinter is Ownable {\r\n\r\n    address private _cooAddr;\r\n    address payable private _cfoAddr;\r\n    bool private _isWhitelistMode;\r\n\r\n    uint256 private _mint1Fee;\r\n    uint256 private _mint2Fee;\r\n    uint256 private _mint3Fee;\r\n    uint256 private _mint4Fee;\r\n    uint256 private _mintBoxFee;\r\n\r\n    uint private constant MINT_TYPE_1 = 1;\r\n    uint private constant MINT_TYPE_2 = 2;\r\n    uint private constant MINT_TYPE_3 = 3;\r\n    uint private constant MINT_TYPE_4 = 4;\r\n    uint private constant MINT_TYPE_BOX = 10;\r\n\r\n    uint private constant BOX_OPEN_STATUS_NOT_OPEN = 0;\r\n    uint private constant BOX_OPEN_STATUS_CREATE_ORDER = 1;\r\n    uint private constant BOX_OPEN_STATUS_OPENED = 2;\r\n\r\n    MetaPassport private _metapassport;\r\n    MetaPassportAvatarPart private _metapassportAvatarPart;\r\n    MetaPassportAvatarSet private _metapassportAvatarSet;\r\n    MetaPassportAvatarSetConfig private _metapassportAvatarSetConfig;\r\n    MetaPassportWhitelist private _whitelist;\r\n\r\n    struct MintOrder {\r\n        uint mintType;\r\n        address from;\r\n        uint[2] params;\r\n        uint orderIndex;\r\n    }\r\n\r\n    struct MysteryBoxRound {\r\n        uint256 round;\r\n        uint256 endTime;\r\n        uint256 totalLimit;\r\n        uint256 userLimit;\r\n    }\r\n\r\n    MintOrder[] private _mintOrders;\r\n    MysteryBoxRound public mysteryBoxCurrentRound;\r\n    mapping(uint256 => mapping(uint256 => mapping(uint256 => uint))) private _mysteryBoxOpened;  // round => (mpTokenId => (slot => status))\r\n    mapping(address => bool) _mintOnceMap;  // address => has created mint1~4 order\r\n\r\n    event MintOrderCreated(uint mintType, address from, uint[2] params, uint orderIndex);\r\n    event MintOrderHandled(uint orderIndex);\r\n    event MysteryBoxSlotOpen(uint round, uint mpTokenId, uint slot, uint setId);\r\n    event MysteryBoxRoundUpdate(uint256 round, uint256 endTime, uint256 totalLimit, uint256 userLimit);\r\n\r\n    constructor(address cooAddr, address payable cfoAddr) {\r\n        _cooAddr = cooAddr;\r\n        _cfoAddr = cfoAddr;\r\n        _isWhitelistMode = true;\r\n        _mint1Fee = 1 * (10 ** 15);     // 0.001 eth\r\n        _mint2Fee = 2 * (10 ** 15);     // 0.002 eth\r\n        _mint3Fee = 3 * (10 ** 15);     // 0.003 eth\r\n        _mint4Fee = 4 * (10 ** 15);     // 0.004 eth\r\n        _mintBoxFee = 2 * (10 ** 15);     // 0.002 eth\r\n    }\r\n    \r\n    ////////////////////////////\r\n    // owner functions \r\n    ////////////////////////////\r\n\r\n    function initContracts(MetaPassport mpAddr, MetaPassportAvatarPart mpAvatarPartAddr, MetaPassportAvatarSet mpAvatarSetAddr, MetaPassportAvatarSetConfig mpAvatarSetConfigAddr) public {\r\n        _metapassport = mpAddr;\r\n        _metapassportAvatarPart = mpAvatarPartAddr;\r\n        _metapassportAvatarSet = mpAvatarSetAddr;\r\n        _metapassportAvatarSetConfig = mpAvatarSetConfigAddr;\r\n    }\r\n\r\n    function setWhitelistContract(MetaPassportWhitelist newWhitelistAddr) public onlyCOO {\r\n        _whitelist = newWhitelistAddr;\r\n        if(address(_whitelist) == address(0x0)) {\r\n            _isWhitelistMode = false;\r\n        }else{\r\n            _isWhitelistMode = true;\r\n        }\r\n    }\r\n\r\n    function withdraw() public onlyCFO {\r\n        _cfoAddr.transfer(address(this).balance);\r\n    }\r\n\r\n    function setCOO(address cooAddr) public onlyOwner {\r\n        _cooAddr = cooAddr;\r\n    }\r\n\r\n    function setCFO(address payable cfoAddr) public onlyOwner {\r\n        _cfoAddr = cfoAddr;\r\n    }\r\n\r\n    function mintByCOO(address to) public onlyCOO {\r\n        _metapassport.safeMint(to);\r\n    }\r\n\r\n    ////////////////////////////\r\n    // mystery box functions\r\n    ////////////////////////////\r\n\r\n    function getBlockTime() public view returns(uint256) {\r\n        return block.timestamp;\r\n    }\r\n\r\n    // endTime : seconds\r\n    function setMysteryBoxRound(uint256 round, uint256 endTime, uint256 totalLimit, uint256 userLimit) public onlyCOO {\r\n        mysteryBoxCurrentRound = MysteryBoxRound(round, endTime, totalLimit, userLimit);\r\n        emit MysteryBoxRoundUpdate(round, endTime, totalLimit, userLimit);\r\n    }\r\n\r\n    function getMysteryBoxRoundEndTime() public view returns(uint256) {\r\n        return mysteryBoxCurrentRound.endTime;\r\n    }\r\n\r\n    function getMysteryBoxRoundInfo() public view returns(MysteryBoxRound memory) {\r\n        return mysteryBoxCurrentRound;\r\n    }\r\n\r\n    function isMysteryBoxRoundOpening() public view returns(bool) {\r\n        uint256 endTime = getMysteryBoxRoundEndTime();\r\n        return endTime > 0 && block.timestamp < endTime;\r\n    }\r\n\r\n    function getSlotOpenStatus(uint256 mpTokenId, uint slot) public view returns(uint) {\r\n        return _mysteryBoxOpened[mysteryBoxCurrentRound.round][mpTokenId][slot];\r\n    }\r\n\r\n    function _setSlotOpenStatus(uint256 mpTokenId, uint slot, uint status) private {\r\n        _mysteryBoxOpened[mysteryBoxCurrentRound.round][mpTokenId][slot] = status;\r\n    }\r\n\r\n    function mintMysteryBox(uint8[] memory slots) public payable {\r\n        require(isMysteryBoxRoundOpening(), \"MetaPassportMinter: mystery box is not opening\");\r\n        require(slots.length < mysteryBoxCurrentRound.userLimit, \"MetaPassportMinter: mystery box slots count > user limit\");\r\n        require(msg.value == _mintBoxFee * slots.length, \"MetaPassportMinter: invalid mint fee\");\r\n\r\n        uint256 mpTokenId = _metapassport.getMetaPassport(msg.sender);\r\n        require(mpTokenId > 0, \"MetaPassportMinter: should own metapassport first\");\r\n\r\n        for(uint i=0; i<slots.length; i++) {\r\n            uint slot = slots[i];\r\n            require(slot < mysteryBoxCurrentRound.userLimit, \"MetaPassportMinter: invalid mystery box slot\");\r\n            require(getSlotOpenStatus(mpTokenId, slot) == BOX_OPEN_STATUS_NOT_OPEN, \"MetaPassportMinter: slot is opened\");\r\n\r\n            _setSlotOpenStatus(mpTokenId, slot, BOX_OPEN_STATUS_CREATE_ORDER);\r\n            uint[2] memory p = [slot, mpTokenId];\r\n            _createMintOrder(MINT_TYPE_BOX, msg.sender, p);\r\n        }\r\n    }\r\n\r\n    function _mintMysteryBox(address to, uint slot, uint mpTokenId, uint seed) private  {\r\n        require(getSlotOpenStatus(mpTokenId, slot) == BOX_OPEN_STATUS_CREATE_ORDER, \"MetaPassportMinter: invalid slot status\");\r\n        _setSlotOpenStatus(mpTokenId, slot, BOX_OPEN_STATUS_OPENED);\r\n        uint256 setId = _metapassportAvatarSetConfig.getRandomSet(seed);\r\n        _metapassportAvatarSet.safeMint(to, setId);\r\n        emit MysteryBoxSlotOpen(mysteryBoxCurrentRound.round, mpTokenId, slot, setId);\r\n    }\r\n\r\n    ////////////////////////////\r\n    // user functions \r\n    ////////////////////////////\r\n\r\n    // mint type 1: only mp\r\n    function mint1() public payable checkWhitelist notOwnedMetaPassport {\r\n        require(msg.value == _mint1Fee, \"MetaPassportMinter: invalid mint fee\");\r\n        _mintOnce(msg.sender);\r\n        uint[2] memory p;\r\n        _createMintOrder(MINT_TYPE_1, msg.sender, p);\r\n    }\r\n\r\n    function _mint1(address to) private {\r\n        _metapassport.safeMint(to);\r\n    }\r\n\r\n    // mint type 2: mp + random avatar set\r\n    function mint2() public payable checkWhitelist notOwnedMetaPassport {\r\n        require(msg.value == _mint2Fee, \"MetaPassportMinter: invalid mint fee\");\r\n        _mintOnce(msg.sender);\r\n        uint[2] memory p;\r\n        _createMintOrder(MINT_TYPE_2, msg.sender, p);\r\n    }\r\n\r\n    function _mint2(address to, uint seed) private {\r\n        _metapassport.safeMint(to);\r\n        uint256 setId = _metapassportAvatarSetConfig.getRandomSet(seed);\r\n        _metapassportAvatarSet.safeMint(to, setId);\r\n    }\r\n\r\n    // mint type 3: mp + random avatar set(limit base)\r\n    function mint3(uint256 baseId) public payable checkWhitelist notOwnedMetaPassport {\r\n        require(msg.value == _mint3Fee, \"MetaPassportMinter: invalid mint fee\");\r\n        _mintOnce(msg.sender);\r\n        _metapassportAvatarSetConfig.checkRandomSetBase(baseId);\r\n        uint[2] memory p = [baseId, 0];\r\n        _createMintOrder(MINT_TYPE_3, msg.sender, p);\r\n    }\r\n\r\n    function _mint3(address to, uint256 baseId, uint seed) private {\r\n        _metapassport.safeMint(to);\r\n        uint256 setId = _metapassportAvatarSetConfig.getRandomSetByBase(seed, baseId);\r\n        _metapassportAvatarSet.safeMint(to, setId);\r\n    }\r\n\r\n    // mint type 4: mp + random avatar set(limit base and series)\r\n    function mint4(uint256 baseId, uint256 series) public payable checkWhitelist notOwnedMetaPassport {\r\n        require(msg.value == _mint4Fee, \"MetaPassportMinter: invalid mint fee\");\r\n        _mintOnce(msg.sender);\r\n        _metapassportAvatarSetConfig.checkRandomSetBaseAndSeries(baseId, series);\r\n        uint[2] memory p = [baseId, series];\r\n        _createMintOrder(MINT_TYPE_4, msg.sender, p);\r\n    }\r\n\r\n    function _mint4(address to, uint256 baseId, uint256 series, uint seed) private {\r\n        _metapassport.safeMint(to);\r\n        uint256 setId = _metapassportAvatarSetConfig.getRandomSetByBaseAndSeries(seed, baseId, series);\r\n        _metapassportAvatarSet.safeMint(to, setId);\r\n    }\r\n\r\n    function _mintOnce(address minter) private {\r\n        require(_mintOnceMap[minter] == false, \"MetaPassportMinter: minter has created mint1~4 order\");\r\n        _mintOnceMap[minter] = true;\r\n    }\r\n\r\n    ////////////////////////////\r\n    // mint order\r\n    ////////////////////////////\r\n\r\n    function _createMintOrder(uint mintType, address from, uint[2] memory params) private {\r\n        uint index = _mintOrders.length + 1;\r\n        _mintOrders.push(MintOrder(mintType, from, params, index));\r\n        emit MintOrderCreated(mintType, from, params, index);\r\n    }\r\n\r\n    function handleMintOrder(uint orderIndex) external onlyCOO {\r\n        require(_mintOrders[orderIndex - 1].orderIndex == orderIndex, \"MetaPassportMinter: invalid order index\");\r\n\r\n        MintOrder memory o = _mintOrders[orderIndex - 1];\r\n\r\n        if(o.mintType == MINT_TYPE_BOX) {\r\n            _mintMysteryBox(o.from, o.params[0], o.params[1], orderIndex);\r\n        }else if(o.mintType == MINT_TYPE_1) {\r\n            _mint1(o.from);\r\n        }else if(o.mintType == MINT_TYPE_2) {\r\n            _mint2(o.from, orderIndex);\r\n        }else if(o.mintType == MINT_TYPE_3) {\r\n            _mint3(o.from, o.params[0], orderIndex);\r\n        }else if(o.mintType == MINT_TYPE_4) {\r\n            _mint4(o.from, o.params[0], o.params[1], orderIndex);\r\n        }else{\r\n            revert();\r\n        }\r\n\r\n        delete _mintOrders[orderIndex - 1];\r\n        emit MintOrderHandled(orderIndex);\r\n    }\r\n\r\n    ////////////////////////////\r\n    // other functions\r\n    ////////////////////////////\r\n\r\n    function metapassport() public view virtual returns (address) {\r\n        return address(_metapassport);\r\n    }\r\n\r\n    function whitelistAddr() public view virtual returns (address) {\r\n        return address(_whitelist);\r\n    }\r\n\r\n    function coo() public view virtual returns (address) {\r\n        return _cooAddr;\r\n    }\r\n\r\n    function cfo() public view virtual returns (address) {\r\n        return _cfoAddr;\r\n    }\r\n\r\n    function mint1Fee() public view virtual returns (uint256) {\r\n        return _mint1Fee;\r\n    }\r\n\r\n    function mint2Fee() public view virtual returns (uint256) {\r\n        return _mint2Fee;\r\n    }\r\n\r\n    function mint3Fee() public view virtual returns (uint256) {\r\n        return _mint3Fee;\r\n    }\r\n\r\n    function mint4Fee() public view virtual returns (uint256) {\r\n        return _mint4Fee;\r\n    }\r\n\r\n    function mintBoxFee() public view virtual returns (uint256) {\r\n        return _mintBoxFee;\r\n    }\r\n\r\n    function isWhitelistMode() public view virtual returns (bool) {\r\n        return _isWhitelistMode;\r\n    }\r\n\r\n    modifier onlyCOO() {\r\n        require(coo() == msg.sender, \"MetaPassportMinter: caller is not the coo\");\r\n        _;\r\n    }\r\n\r\n    modifier onlyCFO() {\r\n        require(cfo() == msg.sender, \"MetaPassportMinter: caller is not the cfo\");\r\n        _;\r\n    }\r\n\r\n    modifier checkWhitelist() {\r\n        require(isWhitelistMode() == false || _whitelist.isWhitelisted(msg.sender), \"MetaPassportMinter: caller is not in the whitelist\");\r\n        _;\r\n    }\r\n\r\n    modifier notOwnedMetaPassport() {\r\n        require(_metapassport.balanceOf(msg.sender) == 0, \"MetaPassportMinter: caller cannot owned metapassport\");\r\n        _;\r\n    }\r\n\r\n}",
  "sourcePath": "D:\\Workspace\\2022-m3\\contracts\\contract-eth\\contracts\\metapassport\\MetaPassportMinter.sol",
  "compiler": {
    "name": "solc",
    "version": "0.8.10+commit.fc410830.Emscripten.clang"
  },
  "schemaVersion": "3.4.4",
  "updatedAt": "2022-04-25T03:56:21.138Z",
  "devdoc": {
    "kind": "dev",
    "methods": {
      "owner()": {
        "details": "Returns the address of the current owner."
      },
      "renounceOwnership()": {
        "details": "Leaves the contract without owner. It will not be possible to call `onlyOwner` functions anymore. Can only be called by the current owner. NOTE: Renouncing ownership will leave the contract without an owner, thereby removing any functionality that is only available to the owner."
      },
      "transferOwnership(address)": {
        "details": "Transfers ownership of the contract to a new account (`newOwner`). Can only be called by the current owner."
      }
    },
    "version": 1
  },
  "userdoc": {
    "kind": "user",
    "methods": {},
    "version": 1
  }
}